{
  "contractName": "BlockchainBulletin",
  "abi": [
    {
      "inputs": [],
      "stateMutability": "nonpayable",
      "type": "constructor"
    },
    {
      "inputs": [
        {
          "internalType": "address",
          "name": "",
          "type": "address"
        }
      ],
      "name": "adminExistence",
      "outputs": [
        {
          "internalType": "bool",
          "name": "exists",
          "type": "bool"
        },
        {
          "internalType": "uint256",
          "name": "index",
          "type": "uint256"
        }
      ],
      "stateMutability": "view",
      "type": "function",
      "constant": true
    },
    {
      "inputs": [
        {
          "internalType": "uint256",
          "name": "",
          "type": "uint256"
        }
      ],
      "name": "admins",
      "outputs": [
        {
          "internalType": "address",
          "name": "",
          "type": "address"
        }
      ],
      "stateMutability": "view",
      "type": "function",
      "constant": true
    },
    {
      "inputs": [
        {
          "internalType": "bytes32",
          "name": "",
          "type": "bytes32"
        }
      ],
      "name": "channelExistence",
      "outputs": [
        {
          "internalType": "bool",
          "name": "exists",
          "type": "bool"
        },
        {
          "internalType": "uint256",
          "name": "index",
          "type": "uint256"
        }
      ],
      "stateMutability": "view",
      "type": "function",
      "constant": true
    },
    {
      "inputs": [
        {
          "internalType": "bytes32",
          "name": "",
          "type": "bytes32"
        }
      ],
      "name": "channelFactory",
      "outputs": [
        {
          "internalType": "bytes32",
          "name": "identifier",
          "type": "bytes32"
        },
        {
          "internalType": "uint256",
          "name": "timestamp",
          "type": "uint256"
        },
        {
          "internalType": "string",
          "name": "description",
          "type": "string"
        }
      ],
      "stateMutability": "view",
      "type": "function",
      "constant": true
    },
    {
      "inputs": [
        {
          "internalType": "uint256",
          "name": "",
          "type": "uint256"
        }
      ],
      "name": "channels",
      "outputs": [
        {
          "internalType": "bytes32",
          "name": "identifier",
          "type": "bytes32"
        },
        {
          "internalType": "uint256",
          "name": "timestamp",
          "type": "uint256"
        },
        {
          "internalType": "string",
          "name": "description",
          "type": "string"
        }
      ],
      "stateMutability": "view",
      "type": "function",
      "constant": true
    },
    {
      "inputs": [
        {
          "internalType": "bytes32",
          "name": "",
          "type": "bytes32"
        },
        {
          "internalType": "address",
          "name": "",
          "type": "address"
        }
      ],
      "name": "managerExistence",
      "outputs": [
        {
          "internalType": "bool",
          "name": "exists",
          "type": "bool"
        },
        {
          "internalType": "uint256",
          "name": "index",
          "type": "uint256"
        }
      ],
      "stateMutability": "view",
      "type": "function",
      "constant": true
    },
    {
      "inputs": [
        {
          "internalType": "bytes32",
          "name": "",
          "type": "bytes32"
        },
        {
          "internalType": "bytes32",
          "name": "",
          "type": "bytes32"
        }
      ],
      "name": "postExistence",
      "outputs": [
        {
          "internalType": "bool",
          "name": "exists",
          "type": "bool"
        },
        {
          "internalType": "uint256",
          "name": "index",
          "type": "uint256"
        }
      ],
      "stateMutability": "view",
      "type": "function",
      "constant": true
    },
    {
      "inputs": [],
      "name": "getChannels",
      "outputs": [
        {
          "components": [
            {
              "internalType": "bytes32",
              "name": "identifier",
              "type": "bytes32"
            },
            {
              "internalType": "uint256",
              "name": "timestamp",
              "type": "uint256"
            },
            {
              "internalType": "string",
              "name": "description",
              "type": "string"
            },
            {
              "internalType": "address[]",
              "name": "managers",
              "type": "address[]"
            },
            {
              "components": [
                {
                  "internalType": "bytes32",
                  "name": "identifier",
                  "type": "bytes32"
                },
                {
                  "internalType": "uint256",
                  "name": "timestamp",
                  "type": "uint256"
                },
                {
                  "internalType": "string",
                  "name": "message",
                  "type": "string"
                },
                {
                  "internalType": "address",
                  "name": "creator",
                  "type": "address"
                },
                {
                  "internalType": "string",
                  "name": "resourceURL",
                  "type": "string"
                }
              ],
              "internalType": "struct BlockchainBulletin.Post[]",
              "name": "posts",
              "type": "tuple[]"
            }
          ],
          "internalType": "struct BlockchainBulletin.Channel[]",
          "name": "",
          "type": "tuple[]"
        }
      ],
      "stateMutability": "view",
      "type": "function",
      "constant": true
    },
    {
      "inputs": [
        {
          "internalType": "bytes32",
          "name": "identifier",
          "type": "bytes32"
        },
        {
          "internalType": "string",
          "name": "description",
          "type": "string"
        }
      ],
      "name": "createChannel",
      "outputs": [
        {
          "components": [
            {
              "internalType": "bytes32",
              "name": "identifier",
              "type": "bytes32"
            },
            {
              "internalType": "uint256",
              "name": "timestamp",
              "type": "uint256"
            },
            {
              "internalType": "string",
              "name": "description",
              "type": "string"
            },
            {
              "internalType": "address[]",
              "name": "managers",
              "type": "address[]"
            },
            {
              "components": [
                {
                  "internalType": "bytes32",
                  "name": "identifier",
                  "type": "bytes32"
                },
                {
                  "internalType": "uint256",
                  "name": "timestamp",
                  "type": "uint256"
                },
                {
                  "internalType": "string",
                  "name": "message",
                  "type": "string"
                },
                {
                  "internalType": "address",
                  "name": "creator",
                  "type": "address"
                },
                {
                  "internalType": "string",
                  "name": "resourceURL",
                  "type": "string"
                }
              ],
              "internalType": "struct BlockchainBulletin.Post[]",
              "name": "posts",
              "type": "tuple[]"
            }
          ],
          "internalType": "struct BlockchainBulletin.Channel[]",
          "name": "",
          "type": "tuple[]"
        }
      ],
      "stateMutability": "nonpayable",
      "type": "function"
    },
    {
      "inputs": [
        {
          "internalType": "bytes32",
          "name": "identifier",
          "type": "bytes32"
        }
      ],
      "name": "deleteChannel",
      "outputs": [
        {
          "components": [
            {
              "internalType": "bytes32",
              "name": "identifier",
              "type": "bytes32"
            },
            {
              "internalType": "uint256",
              "name": "timestamp",
              "type": "uint256"
            },
            {
              "internalType": "string",
              "name": "description",
              "type": "string"
            },
            {
              "internalType": "address[]",
              "name": "managers",
              "type": "address[]"
            },
            {
              "components": [
                {
                  "internalType": "bytes32",
                  "name": "identifier",
                  "type": "bytes32"
                },
                {
                  "internalType": "uint256",
                  "name": "timestamp",
                  "type": "uint256"
                },
                {
                  "internalType": "string",
                  "name": "message",
                  "type": "string"
                },
                {
                  "internalType": "address",
                  "name": "creator",
                  "type": "address"
                },
                {
                  "internalType": "string",
                  "name": "resourceURL",
                  "type": "string"
                }
              ],
              "internalType": "struct BlockchainBulletin.Post[]",
              "name": "posts",
              "type": "tuple[]"
            }
          ],
          "internalType": "struct BlockchainBulletin.Channel[]",
          "name": "",
          "type": "tuple[]"
        }
      ],
      "stateMutability": "nonpayable",
      "type": "function"
    },
    {
      "inputs": [],
      "name": "getAdmins",
      "outputs": [
        {
          "internalType": "address[]",
          "name": "",
          "type": "address[]"
        }
      ],
      "stateMutability": "view",
      "type": "function",
      "constant": true
    },
    {
      "inputs": [
        {
          "internalType": "address",
          "name": "newAdmin",
          "type": "address"
        }
      ],
      "name": "addAdmin",
      "outputs": [
        {
          "internalType": "address[]",
          "name": "",
          "type": "address[]"
        }
      ],
      "stateMutability": "nonpayable",
      "type": "function"
    },
    {
      "inputs": [
        {
          "internalType": "address",
          "name": "admin",
          "type": "address"
        }
      ],
      "name": "removeAdmin",
      "outputs": [
        {
          "internalType": "address[]",
          "name": "",
          "type": "address[]"
        }
      ],
      "stateMutability": "nonpayable",
      "type": "function"
    },
    {
      "inputs": [
        {
          "internalType": "bytes32",
          "name": "identifier",
          "type": "bytes32"
        }
      ],
      "name": "getPosts",
      "outputs": [
        {
          "components": [
            {
              "internalType": "bytes32",
              "name": "identifier",
              "type": "bytes32"
            },
            {
              "internalType": "uint256",
              "name": "timestamp",
              "type": "uint256"
            },
            {
              "internalType": "string",
              "name": "message",
              "type": "string"
            },
            {
              "internalType": "address",
              "name": "creator",
              "type": "address"
            },
            {
              "internalType": "string",
              "name": "resourceURL",
              "type": "string"
            }
          ],
          "internalType": "struct BlockchainBulletin.Post[]",
          "name": "",
          "type": "tuple[]"
        }
      ],
      "stateMutability": "view",
      "type": "function",
      "constant": true
    },
    {
      "inputs": [
        {
          "internalType": "bytes32",
          "name": "channelIdentifier",
          "type": "bytes32"
        },
        {
          "internalType": "bytes32",
          "name": "postIdentifier",
          "type": "bytes32"
        },
        {
          "internalType": "string",
          "name": "message",
          "type": "string"
        },
        {
          "internalType": "string",
          "name": "resourceURL",
          "type": "string"
        }
      ],
      "name": "createPost",
      "outputs": [
        {
          "components": [
            {
              "internalType": "bytes32",
              "name": "identifier",
              "type": "bytes32"
            },
            {
              "internalType": "uint256",
              "name": "timestamp",
              "type": "uint256"
            },
            {
              "internalType": "string",
              "name": "message",
              "type": "string"
            },
            {
              "internalType": "address",
              "name": "creator",
              "type": "address"
            },
            {
              "internalType": "string",
              "name": "resourceURL",
              "type": "string"
            }
          ],
          "internalType": "struct BlockchainBulletin.Post[]",
          "name": "",
          "type": "tuple[]"
        }
      ],
      "stateMutability": "nonpayable",
      "type": "function"
    },
    {
      "inputs": [
        {
          "internalType": "bytes32",
          "name": "identifer",
          "type": "bytes32"
        }
      ],
      "name": "getManagers",
      "outputs": [
        {
          "internalType": "address[]",
          "name": "",
          "type": "address[]"
        }
      ],
      "stateMutability": "view",
      "type": "function",
      "constant": true
    },
    {
      "inputs": [
        {
          "internalType": "bytes32",
          "name": "identifier",
          "type": "bytes32"
        },
        {
          "internalType": "address",
          "name": "newManager",
          "type": "address"
        }
      ],
      "name": "addManager",
      "outputs": [
        {
          "internalType": "address[]",
          "name": "",
          "type": "address[]"
        }
      ],
      "stateMutability": "nonpayable",
      "type": "function"
    },
    {
      "inputs": [
        {
          "internalType": "bytes32",
          "name": "identifier",
          "type": "bytes32"
        },
        {
          "internalType": "address",
          "name": "manager",
          "type": "address"
        }
      ],
      "name": "removeManager",
      "outputs": [
        {
          "internalType": "address[]",
          "name": "",
          "type": "address[]"
        }
      ],
      "stateMutability": "nonpayable",
      "type": "function"
    }
  ],
  "bytecode": "0x608060405234801561001057600080fd5b506000339080600181540180825580915050600190039060005260206000200160009091909190916101000a81548173ffffffffffffffffffffffffffffffffffffffff021916908373ffffffffffffffffffffffffffffffffffffffff1602179055506000600260003373ffffffffffffffffffffffffffffffffffffffff1673ffffffffffffffffffffffffffffffffffffffff168152602001908152602001600020905060018160000160006101000a81548160ff0219169083151502179055506000816001018190555050614d6e806100ee6000396000f3fe608060405234801561001057600080fd5b50600436106101165760003560e01c806370480275116100a2578063b0b052c211610071578063b0b052c21461036c578063b21aa96c1461039c578063ce438c16146103cc578063e5949b5d146103fc578063ec353def1461042e57610116565b806370480275146102bd5780637bc4f54a146102ed578063924b446a1461031e5780639575f6ac1461034e57610116565b80632c40c28d116100e95780632c40c28d146101dd5780632e2c08981461020d57806331ae450b1461023e5780634c2c90811461025c57806360cb5fac1461028d57610116565b806304b7ea961461011b57806314bfd6d01461014b5780631785f53c1461017b57806326025a5f146101ab575b600080fd5b61013560048036038101906101309190613d32565b61045f565b60405161014291906141c8565b60405180910390f35b61016560048036038101906101609190614216565b610a75565b6040516101729190614252565b60405180910390f35b61019560048036038101906101909190614299565b610ab4565b6040516101a29190614335565b60405180910390f35b6101c560048036038101906101c09190614357565b610eca565b6040516101d4939291906143ec565b60405180910390f35b6101f760048036038101906101f29190614357565b610f7c565b6040516102049190614335565b60405180910390f35b6102276004803603810190610222919061442a565b611045565b604051610235929190614485565b60405180910390f35b610246611083565b6040516102539190614335565b60405180910390f35b61027660048036038101906102719190614299565b611111565b604051610284929190614485565b60405180910390f35b6102a760048036038101906102a29190614357565b611142565b6040516102b491906141c8565b60405180910390f35b6102d760048036038101906102d29190614299565b61176e565b6040516102e49190614335565b60405180910390f35b61030760048036038101906103029190614357565b6119bd565b604051610315929190614485565b60405180910390f35b610338600480360381019061033391906144ae565b6119ee565b60405161034591906145db565b60405180910390f35b6103566123f7565b60405161036391906141c8565b60405180910390f35b6103866004803603810190610381919061442a565b612777565b6040516103939190614335565b60405180910390f35b6103b660048036038101906103b1919061442a565b612cef565b6040516103c39190614335565b60405180910390f35b6103e660048036038101906103e19190614357565b613557565b6040516103f391906145db565b60405180910390f35b61041660048036038101906104119190614216565b61377f565b604051610425939291906143ec565b60405180910390f35b610448600480360381019061044391906145fd565b613841565b604051610456929190614485565b60405180910390f35b6060600260003373ffffffffffffffffffffffffffffffffffffffff1673ffffffffffffffffffffffffffffffffffffffff16815260200190815260200160002060000160009054906101000a900460ff166104f0576040517f08c379a00000000000000000000000000000000000000000000000000000000081526004016104e7906146af565b60405180910390fd5b60006003600086815260200190815260200160002090508060000160009054906101000a900460ff1615610559576040517f08c379a000000000000000000000000000000000000000000000000000000000815260040161055090614741565b60405180910390fd5b6001600660008781526020019081526020016000209080600181540180825580915050600190039060005260206000209060050201600090919091909150600082015481600001556001820154816001015560028201816002019080546105bf90614790565b6105ca92919061387f565b5060038201816003019080546105e192919061390c565b5060048201816004019080546105f892919061395e565b5050506000600180808054905061060f91906147f0565b815481106106205761061f614824565b5b906000526020600020906005020190508581600001819055504281600101819055508484826002019190610655929190613a71565b5080600301339080600181540180825580915050600190039060005260206000200160009091909190916101000a81548173ffffffffffffffffffffffffffffffffffffffff021916908373ffffffffffffffffffffffffffffffffffffffff16021790555060018260000160006101000a81548160ff021916908315150217905550600180805490506106e991906147f0565b82600101819055506001805480602002602001604051908101604052809291908181526020016000905b82821015610a6657838290600052602060002090600502016040518060a0016040529081600082015481526020016001820154815260200160028201805461075a90614790565b80601f016020809104026020016040519081016040528092919081815260200182805461078690614790565b80156107d35780601f106107a8576101008083540402835291602001916107d3565b820191906000526020600020905b8154815290600101906020018083116107b657829003601f168201915b505050505081526020016003820180548060200260200160405190810160405280929190818152602001828054801561086157602002820191906000526020600020905b8160009054906101000a900473ffffffffffffffffffffffffffffffffffffffff1673ffffffffffffffffffffffffffffffffffffffff1681526020019060010190808311610817575b5050505050815260200160048201805480602002602001604051908101604052809291908181526020016000905b82821015610a4f57838290600052602060002090600502016040518060a001604052908160008201548152602001600182015481526020016002820180546108d690614790565b80601f016020809104026020016040519081016040528092919081815260200182805461090290614790565b801561094f5780601f106109245761010080835404028352916020019161094f565b820191906000526020600020905b81548152906001019060200180831161093257829003601f168201915b505050505081526020016003820160009054906101000a900473ffffffffffffffffffffffffffffffffffffffff1673ffffffffffffffffffffffffffffffffffffffff1673ffffffffffffffffffffffffffffffffffffffff1681526020016004820180546109be90614790565b80601f01602080910402602001604051908101604052809291908181526020018280546109ea90614790565b8015610a375780601f10610a0c57610100808354040283529160200191610a37565b820191906000526020600020905b815481529060010190602001808311610a1a57829003601f168201915b5050505050815250508152602001906001019061088f565b505050508152505081526020019060010190610713565b50505050925050509392505050565b60008181548110610a8557600080fd5b906000526020600020016000915054906101000a900473ffffffffffffffffffffffffffffffffffffffff1681565b6060600260003373ffffffffffffffffffffffffffffffffffffffff1673ffffffffffffffffffffffffffffffffffffffff16815260200190815260200160002060000160009054906101000a900460ff16610b45576040517f08c379a0000000000000000000000000000000000000000000000000000000008152600401610b3c906146af565b60405180910390fd5b6000600260008473ffffffffffffffffffffffffffffffffffffffff1673ffffffffffffffffffffffffffffffffffffffff16815260200190815260200160002090508060000160009054906101000a900460ff16610bd9576040517f08c379a0000000000000000000000000000000000000000000000000000000008152600401610bd0906148c5565b60405180910390fd5b8273ffffffffffffffffffffffffffffffffffffffff163373ffffffffffffffffffffffffffffffffffffffff1603610c47576040517f08c379a0000000000000000000000000000000000000000000000000000000008152600401610c3e90614957565b60405180910390fd5b6000806001600080549050610c5c91906147f0565b81548110610c6d57610c6c614824565b5b9060005260206000200160009054906101000a900473ffffffffffffffffffffffffffffffffffffffff16905060006001600080549050610cae91906147f0565b81548110610cbf57610cbe614824565b5b9060005260206000200160009054906101000a900473ffffffffffffffffffffffffffffffffffffffff166000836001015481548110610d0257610d01614824565b5b9060005260206000200160006101000a81548173ffffffffffffffffffffffffffffffffffffffff021916908373ffffffffffffffffffffffffffffffffffffffff1602179055506000805480610d5c57610d5b614977565b5b6001900381819060005260206000200160006101000a81549073ffffffffffffffffffffffffffffffffffffffff021916905590558160010154600260008373ffffffffffffffffffffffffffffffffffffffff1673ffffffffffffffffffffffffffffffffffffffff16815260200190815260200160002060010181905550600260008573ffffffffffffffffffffffffffffffffffffffff1673ffffffffffffffffffffffffffffffffffffffff168152602001908152602001600020600080820160006101000a81549060ff0219169055600182016000905550506000805480602002602001604051908101604052809291908181526020018280548015610ebc57602002820191906000526020600020905b8160009054906101000a900473ffffffffffffffffffffffffffffffffffffffff1673ffffffffffffffffffffffffffffffffffffffff1681526020019060010190808311610e72575b505050505092505050919050565b6006602052806000526040600020600091509050806000015490806001015490806002018054610ef990614790565b80601f0160208091040260200160405190810160405280929190818152602001828054610f2590614790565b8015610f725780601f10610f4757610100808354040283529160200191610f72565b820191906000526020600020905b815481529060010190602001808311610f5557829003601f168201915b5050505050905083565b60606001600360008481526020019081526020016000206001015481548110610fa857610fa7614824565b5b906000526020600020906005020160030180548060200260200160405190810160405280929190818152602001828054801561103957602002820191906000526020600020905b8160009054906101000a900473ffffffffffffffffffffffffffffffffffffffff1673ffffffffffffffffffffffffffffffffffffffff1681526020019060010190808311610fef575b50505050509050919050565b6005602052816000526040600020602052806000526040600020600091509150508060000160009054906101000a900460ff16908060010154905082565b6060600080548060200260200160405190810160405280929190818152602001828054801561110757602002820191906000526020600020905b8160009054906101000a900473ffffffffffffffffffffffffffffffffffffffff1673ffffffffffffffffffffffffffffffffffffffff16815260200190600101908083116110bd575b5050505050905090565b60026020528060005260406000206000915090508060000160009054906101000a900460ff16908060010154905082565b6060600260003373ffffffffffffffffffffffffffffffffffffffff1673ffffffffffffffffffffffffffffffffffffffff16815260200190815260200160002060000160009054906101000a900460ff166111d3576040517f08c379a00000000000000000000000000000000000000000000000000000000081526004016111ca906146af565b60405180910390fd5b60006003600084815260200190815260200160002090508060000160009054906101000a900460ff1661123b576040517f08c379a000000000000000000000000000000000000000000000000000000000815260040161123290614a18565b60405180910390fd5b6000600180808054905061124f91906147f0565b815481106112605761125f614824565b5b9060005260206000209060050201600001549050600180808054905061128691906147f0565b8154811061129757611296614824565b5b906000526020600020906005020160018360010154815481106112bd576112bc614824565b5b9060005260206000209060050201600082015481600001556001820154816001015560028201816002019080546112f390614790565b6112fe92919061387f565b50600382018160030190805461131592919061390c565b50600482018160040190805461132c92919061395e565b50905050600180548061134257611341614977565b5b600190038181906000526020600020906005020160008082016000905560018201600090556002820160006113779190613af7565b6003820160006113879190613b37565b6004820160006113979190613b58565b505090558160010154600360008381526020019081526020016000206001018190555060036000858152602001908152602001600020600080820160006101000a81549060ff0219169055600182016000905550506001805480602002602001604051908101604052809291908181526020016000905b8282101561176157838290600052602060002090600502016040518060a0016040529081600082015481526020016001820154815260200160028201805461145590614790565b80601f016020809104026020016040519081016040528092919081815260200182805461148190614790565b80156114ce5780601f106114a3576101008083540402835291602001916114ce565b820191906000526020600020905b8154815290600101906020018083116114b157829003601f168201915b505050505081526020016003820180548060200260200160405190810160405280929190818152602001828054801561155c57602002820191906000526020600020905b8160009054906101000a900473ffffffffffffffffffffffffffffffffffffffff1673ffffffffffffffffffffffffffffffffffffffff1681526020019060010190808311611512575b5050505050815260200160048201805480602002602001604051908101604052809291908181526020016000905b8282101561174a57838290600052602060002090600502016040518060a001604052908160008201548152602001600182015481526020016002820180546115d190614790565b80601f01602080910402602001604051908101604052809291908181526020018280546115fd90614790565b801561164a5780601f1061161f5761010080835404028352916020019161164a565b820191906000526020600020905b81548152906001019060200180831161162d57829003601f168201915b505050505081526020016003820160009054906101000a900473ffffffffffffffffffffffffffffffffffffffff1673ffffffffffffffffffffffffffffffffffffffff1673ffffffffffffffffffffffffffffffffffffffff1681526020016004820180546116b990614790565b80601f01602080910402602001604051908101604052809291908181526020018280546116e590614790565b80156117325780601f1061170757610100808354040283529160200191611732565b820191906000526020600020905b81548152906001019060200180831161171557829003601f168201915b5050505050815250508152602001906001019061158a565b50505050815250508152602001906001019061140e565b5050505092505050919050565b6060600260003373ffffffffffffffffffffffffffffffffffffffff1673ffffffffffffffffffffffffffffffffffffffff16815260200190815260200160002060000160009054906101000a900460ff166117ff576040517f08c379a00000000000000000000000000000000000000000000000000000000081526004016117f6906146af565b60405180910390fd5b6000600260008473ffffffffffffffffffffffffffffffffffffffff1673ffffffffffffffffffffffffffffffffffffffff16815260200190815260200160002090508060000160009054906101000a900460ff1615611894576040517f08c379a000000000000000000000000000000000000000000000000000000000815260040161188b90614aaa565b60405180910390fd5b6000839080600181540180825580915050600190039060005260206000200160009091909190916101000a81548173ffffffffffffffffffffffffffffffffffffffff021916908373ffffffffffffffffffffffffffffffffffffffff16021790555060018160000160006101000a81548160ff021916908315150217905550600160008054905061192691906147f0565b816001018190555060008054806020026020016040519081016040528092919081815260200182805480156119b057602002820191906000526020600020905b8160009054906101000a900473ffffffffffffffffffffffffffffffffffffffff1673ffffffffffffffffffffffffffffffffffffffff1681526020019060010190808311611966575b5050505050915050919050565b60036020528060005260406000206000915090508060000160009054906101000a900460ff16908060010154905082565b606086866003600083815260200190815260200160002060000160009054906101000a900460ff16611a55576040517f08c379a0000000000000000000000000000000000000000000000000000000008152600401611a4c90614a18565b60405180910390fd5b60046000838152602001908152602001600020600082815260200190815260200160002060000160009054906101000a900460ff1615611aca576040517f08c379a0000000000000000000000000000000000000000000000000000000008152600401611ac190614b3c565b60405180910390fd5b88600260003373ffffffffffffffffffffffffffffffffffffffff1673ffffffffffffffffffffffffffffffffffffffff16815260200190815260200160002060000160009054906101000a900460ff1615611f375760006001600360008d81526020019081526020016000206001015481548110611b4c57611b4b614824565b5b90600052602060002090600502016004019050806040518060a001604052808c81526020014281526020018b8b8080601f016020809104026020016040519081016040528093929190818152602001838380828437600081840152601f19601f8201169050808301925050505050505081526020013373ffffffffffffffffffffffffffffffffffffffff16815260200189898080601f016020809104026020016040519081016040528093929190818152602001838380828437600081840152601f19601f82011690508083019250505050505050815250908060018154018082558091505060019003906000526020600020906005020160009091909190915060008201518160000155602082015181600101556040820151816002019080519060200190611c7e929190613b7c565b5060608201518160030160006101000a81548173ffffffffffffffffffffffffffffffffffffffff021916908373ffffffffffffffffffffffffffffffffffffffff1602179055506080820151816004019080519060200190611ce2929190613b7c565b5050506000600460008d8152602001908152602001600020905060008160008d8152602001908152602001600020905060018160000160006101000a81548160ff02191690831515021790555060018380549050611d4091906147f0565b816001018190555082805480602002602001604051908101604052809291908181526020016000905b82821015611f2957838290600052602060002090600502016040518060a00160405290816000820154815260200160018201548152602001600282018054611db090614790565b80601f0160208091040260200160405190810160405280929190818152602001828054611ddc90614790565b8015611e295780601f10611dfe57610100808354040283529160200191611e29565b820191906000526020600020905b815481529060010190602001808311611e0c57829003601f168201915b505050505081526020016003820160009054906101000a900473ffffffffffffffffffffffffffffffffffffffff1673ffffffffffffffffffffffffffffffffffffffff1673ffffffffffffffffffffffffffffffffffffffff168152602001600482018054611e9890614790565b80601f0160208091040260200160405190810160405280929190818152602001828054611ec490614790565b8015611f115780601f10611ee657610100808354040283529160200191611f11565b820191906000526020600020905b815481529060010190602001808311611ef457829003601f168201915b50505050508152505081526020019060010190611d69565b5050505096505050506123ea565b6005600082815260200190815260200160002060003373ffffffffffffffffffffffffffffffffffffffff1673ffffffffffffffffffffffffffffffffffffffff16815260200190815260200160002060000160009054906101000a900460ff16611fd7576040517f08c379a0000000000000000000000000000000000000000000000000000000008152600401611fce90614bf4565b60405180910390fd5b60006001600360008d8152602001908152602001600020600101548154811061200357612002614824565b5b90600052602060002090600502016004019050806040518060a001604052808c81526020014281526020018b8b8080601f016020809104026020016040519081016040528093929190818152602001838380828437600081840152601f19601f8201169050808301925050505050505081526020013373ffffffffffffffffffffffffffffffffffffffff16815260200189898080601f016020809104026020016040519081016040528093929190818152602001838380828437600081840152601f19601f82011690508083019250505050505050815250908060018154018082558091505060019003906000526020600020906005020160009091909190915060008201518160000155602082015181600101556040820151816002019080519060200190612135929190613b7c565b5060608201518160030160006101000a81548173ffffffffffffffffffffffffffffffffffffffff021916908373ffffffffffffffffffffffffffffffffffffffff1602179055506080820151816004019080519060200190612199929190613b7c565b5050506000600460008d8152602001908152602001600020905060008160008d8152602001908152602001600020905060018160000160006101000a81548160ff021916908315150217905550600183805490506121f791906147f0565b816001018190555082805480602002602001604051908101604052809291908181526020016000905b828210156123e057838290600052602060002090600502016040518060a0016040529081600082015481526020016001820154815260200160028201805461226790614790565b80601f016020809104026020016040519081016040528092919081815260200182805461229390614790565b80156122e05780601f106122b5576101008083540402835291602001916122e0565b820191906000526020600020905b8154815290600101906020018083116122c357829003601f168201915b505050505081526020016003820160009054906101000a900473ffffffffffffffffffffffffffffffffffffffff1673ffffffffffffffffffffffffffffffffffffffff1673ffffffffffffffffffffffffffffffffffffffff16815260200160048201805461234f90614790565b80601f016020809104026020016040519081016040528092919081815260200182805461237b90614790565b80156123c85780601f1061239d576101008083540402835291602001916123c8565b820191906000526020600020905b8154815290600101906020018083116123ab57829003601f168201915b50505050508152505081526020019060010190612220565b5050505096505050505b5050509695505050505050565b60606001805480602002602001604051908101604052809291908181526020016000905b8282101561276e57838290600052602060002090600502016040518060a0016040529081600082015481526020016001820154815260200160028201805461246290614790565b80601f016020809104026020016040519081016040528092919081815260200182805461248e90614790565b80156124db5780601f106124b0576101008083540402835291602001916124db565b820191906000526020600020905b8154815290600101906020018083116124be57829003601f168201915b505050505081526020016003820180548060200260200160405190810160405280929190818152602001828054801561256957602002820191906000526020600020905b8160009054906101000a900473ffffffffffffffffffffffffffffffffffffffff1673ffffffffffffffffffffffffffffffffffffffff168152602001906001019080831161251f575b5050505050815260200160048201805480602002602001604051908101604052809291908181526020016000905b8282101561275757838290600052602060002090600502016040518060a001604052908160008201548152602001600182015481526020016002820180546125de90614790565b80601f016020809104026020016040519081016040528092919081815260200182805461260a90614790565b80156126575780601f1061262c57610100808354040283529160200191612657565b820191906000526020600020905b81548152906001019060200180831161263a57829003601f168201915b505050505081526020016003820160009054906101000a900473ffffffffffffffffffffffffffffffffffffffff1673ffffffffffffffffffffffffffffffffffffffff1673ffffffffffffffffffffffffffffffffffffffff1681526020016004820180546126c690614790565b80601f01602080910402602001604051908101604052809291908181526020018280546126f290614790565b801561273f5780601f106127145761010080835404028352916020019161273f565b820191906000526020600020905b81548152906001019060200180831161272257829003601f168201915b50505050508152505081526020019060010190612597565b50505050815250508152602001906001019061241b565b50505050905090565b6060826003600082815260200190815260200160002060000160009054906101000a900460ff166127dd576040517f08c379a00000000000000000000000000000000000000000000000000000000081526004016127d490614a18565b60405180910390fd5b83600260003373ffffffffffffffffffffffffffffffffffffffff1673ffffffffffffffffffffffffffffffffffffffff16815260200190815260200160002060000160009054906101000a900460ff1615612a3f5760006005600087815260200190815260200160002060008673ffffffffffffffffffffffffffffffffffffffff1673ffffffffffffffffffffffffffffffffffffffff16815260200190815260200160002090508060000160009054906101000a900460ff16156128d9576040517f08c379a00000000000000000000000000000000000000000000000000000000081526004016128d090614c86565b60405180910390fd5b6000600160036000898152602001908152602001600020600101548154811061290557612904614824565b5b9060005260206000209060050201600301905080869080600181540180825580915050600190039060005260206000200160009091909190916101000a81548173ffffffffffffffffffffffffffffffffffffffff021916908373ffffffffffffffffffffffffffffffffffffffff16021790555060018260000160006101000a81548160ff021916908315150217905550600181805490506129a891906147f0565b826001018190555080805480602002602001604051908101604052809291908181526020018280548015612a3157602002820191906000526020600020905b8160009054906101000a900473ffffffffffffffffffffffffffffffffffffffff1673ffffffffffffffffffffffffffffffffffffffff16815260200190600101908083116129e7575b505050505094505050612ce7565b6005600082815260200190815260200160002060003373ffffffffffffffffffffffffffffffffffffffff1673ffffffffffffffffffffffffffffffffffffffff16815260200190815260200160002060000160009054906101000a900460ff16612adf576040517f08c379a0000000000000000000000000000000000000000000000000000000008152600401612ad690614bf4565b60405180910390fd5b60006005600087815260200190815260200160002060008673ffffffffffffffffffffffffffffffffffffffff1673ffffffffffffffffffffffffffffffffffffffff16815260200190815260200160002090508060000160009054906101000a900460ff1615612b85576040517f08c379a0000000000000000000000000000000000000000000000000000000008152600401612b7c90614c86565b60405180910390fd5b60006001600360008981526020019081526020016000206001015481548110612bb157612bb0614824565b5b9060005260206000209060050201600301905080869080600181540180825580915050600190039060005260206000200160009091909190916101000a81548173ffffffffffffffffffffffffffffffffffffffff021916908373ffffffffffffffffffffffffffffffffffffffff16021790555060018260000160006101000a81548160ff02191690831515021790555060018180549050612c5491906147f0565b826001018190555080805480602002602001604051908101604052809291908181526020018280548015612cdd57602002820191906000526020600020905b8160009054906101000a900473ffffffffffffffffffffffffffffffffffffffff1673ffffffffffffffffffffffffffffffffffffffff1681526020019060010190808311612c93575b5050505050945050505b505092915050565b6060826003600082815260200190815260200160002060000160009054906101000a900460ff16612d55576040517f08c379a0000000000000000000000000000000000000000000000000000000008152600401612d4c90614a18565b60405180910390fd5b83600260003373ffffffffffffffffffffffffffffffffffffffff1673ffffffffffffffffffffffffffffffffffffffff16815260200190815260200160002060000160009054906101000a900460ff161561312f5760006005600087815260200190815260200160002060008673ffffffffffffffffffffffffffffffffffffffff1673ffffffffffffffffffffffffffffffffffffffff16815260200190815260200160002090508060000160009054906101000a900460ff16612e50576040517f08c379a0000000000000000000000000000000000000000000000000000000008152600401612e4790614d18565b60405180910390fd5b60006001600360008981526020019081526020016000206001015481548110612e7c57612e7b614824565b5b9060005260206000209060050201600301905060008160018380549050612ea391906147f0565b81548110612eb457612eb3614824565b5b9060005260206000200160009054906101000a900473ffffffffffffffffffffffffffffffffffffffff1690508160018380549050612ef391906147f0565b81548110612f0457612f03614824565b5b9060005260206000200160009054906101000a900473ffffffffffffffffffffffffffffffffffffffff1682846001015481548110612f4657612f45614824565b5b9060005260206000200160006101000a81548173ffffffffffffffffffffffffffffffffffffffff021916908373ffffffffffffffffffffffffffffffffffffffff16021790555081805480612f9f57612f9e614977565b5b6001900381819060005260206000200160006101000a81549073ffffffffffffffffffffffffffffffffffffffff021916905590558260010154600560008a815260200190815260200160002060008373ffffffffffffffffffffffffffffffffffffffff1673ffffffffffffffffffffffffffffffffffffffff168152602001908152602001600020600101819055506005600089815260200190815260200160002060008873ffffffffffffffffffffffffffffffffffffffff1673ffffffffffffffffffffffffffffffffffffffff168152602001908152602001600020600080820160006101000a81549060ff0219169055600182016000905550508180548060200260200160405190810160405280929190818152602001828054801561312057602002820191906000526020600020905b8160009054906101000a900473ffffffffffffffffffffffffffffffffffffffff1673ffffffffffffffffffffffffffffffffffffffff16815260200190600101908083116130d6575b5050505050955050505061354f565b6005600082815260200190815260200160002060003373ffffffffffffffffffffffffffffffffffffffff1673ffffffffffffffffffffffffffffffffffffffff16815260200190815260200160002060000160009054906101000a900460ff166131cf576040517f08c379a00000000000000000000000000000000000000000000000000000000081526004016131c690614bf4565b60405180910390fd5b60006005600087815260200190815260200160002060008673ffffffffffffffffffffffffffffffffffffffff1673ffffffffffffffffffffffffffffffffffffffff16815260200190815260200160002090508060000160009054906101000a900460ff16613274576040517f08c379a000000000000000000000000000000000000000000000000000000000815260040161326b90614d18565b60405180910390fd5b600060016003600089815260200190815260200160002060010154815481106132a05761329f614824565b5b90600052602060002090600502016003019050600081600183805490506132c791906147f0565b815481106132d8576132d7614824565b5b9060005260206000200160009054906101000a900473ffffffffffffffffffffffffffffffffffffffff169050816001838054905061331791906147f0565b8154811061332857613327614824565b5b9060005260206000200160009054906101000a900473ffffffffffffffffffffffffffffffffffffffff168284600101548154811061336a57613369614824565b5b9060005260206000200160006101000a81548173ffffffffffffffffffffffffffffffffffffffff021916908373ffffffffffffffffffffffffffffffffffffffff160217905550818054806133c3576133c2614977565b5b6001900381819060005260206000200160006101000a81549073ffffffffffffffffffffffffffffffffffffffff021916905590558260010154600560008a815260200190815260200160002060008373ffffffffffffffffffffffffffffffffffffffff1673ffffffffffffffffffffffffffffffffffffffff168152602001908152602001600020600101819055506005600089815260200190815260200160002060008873ffffffffffffffffffffffffffffffffffffffff1673ffffffffffffffffffffffffffffffffffffffff168152602001908152602001600020600080820160006101000a81549060ff0219169055600182016000905550508180548060200260200160405190810160405280929190818152602001828054801561354457602002820191906000526020600020905b8160009054906101000a900473ffffffffffffffffffffffffffffffffffffffff1673ffffffffffffffffffffffffffffffffffffffff16815260200190600101908083116134fa575b505050505095505050505b505092915050565b6060600160036000848152602001908152602001600020600101548154811061358357613582614824565b5b9060005260206000209060050201600401805480602002602001604051908101604052809291908181526020016000905b8282101561377457838290600052602060002090600502016040518060a001604052908160008201548152602001600182015481526020016002820180546135fb90614790565b80601f016020809104026020016040519081016040528092919081815260200182805461362790614790565b80156136745780601f1061364957610100808354040283529160200191613674565b820191906000526020600020905b81548152906001019060200180831161365757829003601f168201915b505050505081526020016003820160009054906101000a900473ffffffffffffffffffffffffffffffffffffffff1673ffffffffffffffffffffffffffffffffffffffff1673ffffffffffffffffffffffffffffffffffffffff1681526020016004820180546136e390614790565b80601f016020809104026020016040519081016040528092919081815260200182805461370f90614790565b801561375c5780601f106137315761010080835404028352916020019161375c565b820191906000526020600020905b81548152906001019060200180831161373f57829003601f168201915b505050505081525050815260200190600101906135b4565b505050509050919050565b6001818154811061378f57600080fd5b90600052602060002090600502016000915090508060000154908060010154908060020180546137be90614790565b80601f01602080910402602001604051908101604052809291908181526020018280546137ea90614790565b80156138375780601f1061380c57610100808354040283529160200191613837565b820191906000526020600020905b81548152906001019060200180831161381a57829003601f168201915b5050505050905083565b6004602052816000526040600020602052806000526040600020600091509150508060000160009054906101000a900460ff16908060010154905082565b82805461388b90614790565b90600052602060002090601f0160209004810192826138ad57600085556138fb565b82601f106138be57805485556138fb565b828001600101855582156138fb57600052602060002091601f016020900482015b828111156138fa5782548255916001019190600101906138df565b5b5090506139089190613c02565b5090565b82805482825590600052602060002090810192821561394d5760005260206000209182015b8281111561394c578254825591600101919060010190613931565b5b50905061395a9190613c02565b5090565b828054828255906000526020600020906005028101928215613a605760005260206000209160050282015b82811115613a5f578282600082015481600001556001820154816001015560028201816002019080546139bb90614790565b6139c692919061387f565b506003820160009054906101000a900473ffffffffffffffffffffffffffffffffffffffff168160030160006101000a81548173ffffffffffffffffffffffffffffffffffffffff021916908373ffffffffffffffffffffffffffffffffffffffff1602179055506004820181600401908054613a4290614790565b613a4d92919061387f565b50505091600501919060050190613989565b5b509050613a6d9190613c1f565b5090565b828054613a7d90614790565b90600052602060002090601f016020900481019282613a9f5760008555613ae6565b82601f10613ab857803560ff1916838001178555613ae6565b82800160010185558215613ae6579182015b82811115613ae5578235825591602001919060010190613aca565b5b509050613af39190613c02565b5090565b508054613b0390614790565b6000825580601f10613b155750613b34565b601f016020900490600052602060002090810190613b339190613c02565b5b50565b5080546000825590600052602060002090810190613b559190613c02565b50565b5080546000825560050290600052602060002090810190613b799190613c1f565b50565b828054613b8890614790565b90600052602060002090601f016020900481019282613baa5760008555613bf1565b82601f10613bc357805160ff1916838001178555613bf1565b82800160010185558215613bf1579182015b82811115613bf0578251825591602001919060010190613bd5565b5b509050613bfe9190613c02565b5090565b5b80821115613c1b576000816000905550600101613c03565b5090565b5b80821115613c89576000808201600090556001820160009055600282016000613c499190613af7565b6003820160006101000a81549073ffffffffffffffffffffffffffffffffffffffff0219169055600482016000613c809190613af7565b50600501613c20565b5090565b600080fd5b600080fd5b6000819050919050565b613caa81613c97565b8114613cb557600080fd5b50565b600081359050613cc781613ca1565b92915050565b600080fd5b600080fd5b600080fd5b60008083601f840112613cf257613cf1613ccd565b5b8235905067ffffffffffffffff811115613d0f57613d0e613cd2565b5b602083019150836001820283011115613d2b57613d2a613cd7565b5b9250929050565b600080600060408486031215613d4b57613d4a613c8d565b5b6000613d5986828701613cb8565b935050602084013567ffffffffffffffff811115613d7a57613d79613c92565b5b613d8686828701613cdc565b92509250509250925092565b600081519050919050565b600082825260208201905092915050565b6000819050602082019050919050565b613dc781613c97565b82525050565b6000819050919050565b613de081613dcd565b82525050565b600081519050919050565b600082825260208201905092915050565b60005b83811015613e20578082015181840152602081019050613e05565b83811115613e2f576000848401525b50505050565b6000601f19601f8301169050919050565b6000613e5182613de6565b613e5b8185613df1565b9350613e6b818560208601613e02565b613e7481613e35565b840191505092915050565b600081519050919050565b600082825260208201905092915050565b6000819050602082019050919050565b600073ffffffffffffffffffffffffffffffffffffffff82169050919050565b6000613ed682613eab565b9050919050565b613ee681613ecb565b82525050565b6000613ef88383613edd565b60208301905092915050565b6000602082019050919050565b6000613f1c82613e7f565b613f268185613e8a565b9350613f3183613e9b565b8060005b83811015613f62578151613f498882613eec565b9750613f5483613f04565b925050600181019050613f35565b5085935050505092915050565b600081519050919050565b600082825260208201905092915050565b6000819050602082019050919050565b600060a083016000830151613fb36000860182613dbe565b506020830151613fc66020860182613dd7565b5060408301518482036040860152613fde8282613e46565b9150506060830151613ff36060860182613edd565b506080830151848203608086015261400b8282613e46565b9150508091505092915050565b60006140248383613f9b565b905092915050565b6000602082019050919050565b600061404482613f6f565b61404e8185613f7a565b93508360208202850161406085613f8b565b8060005b8581101561409c578484038952815161407d8582614018565b94506140888361402c565b925060208a01995050600181019050614064565b50829750879550505050505092915050565b600060a0830160008301516140c66000860182613dbe565b5060208301516140d96020860182613dd7565b50604083015184820360408601526140f18282613e46565b9150506060830151848203606086015261410b8282613f11565b915050608083015184820360808601526141258282614039565b9150508091505092915050565b600061413e83836140ae565b905092915050565b6000602082019050919050565b600061415e82613d92565b6141688185613d9d565b93508360208202850161417a85613dae565b8060005b858110156141b657848403895281516141978582614132565b94506141a283614146565b925060208a0199505060018101905061417e565b50829750879550505050505092915050565b600060208201905081810360008301526141e28184614153565b905092915050565b6141f381613dcd565b81146141fe57600080fd5b50565b600081359050614210816141ea565b92915050565b60006020828403121561422c5761422b613c8d565b5b600061423a84828501614201565b91505092915050565b61424c81613ecb565b82525050565b60006020820190506142676000830184614243565b92915050565b61427681613ecb565b811461428157600080fd5b50565b6000813590506142938161426d565b92915050565b6000602082840312156142af576142ae613c8d565b5b60006142bd84828501614284565b91505092915050565b600082825260208201905092915050565b60006142e282613e7f565b6142ec81856142c6565b93506142f783613e9b565b8060005b8381101561432857815161430f8882613eec565b975061431a83613f04565b9250506001810190506142fb565b5085935050505092915050565b6000602082019050818103600083015261434f81846142d7565b905092915050565b60006020828403121561436d5761436c613c8d565b5b600061437b84828501613cb8565b91505092915050565b61438d81613c97565b82525050565b61439c81613dcd565b82525050565b600082825260208201905092915050565b60006143be82613de6565b6143c881856143a2565b93506143d8818560208601613e02565b6143e181613e35565b840191505092915050565b60006060820190506144016000830186614384565b61440e6020830185614393565b818103604083015261442081846143b3565b9050949350505050565b6000806040838503121561444157614440613c8d565b5b600061444f85828601613cb8565b925050602061446085828601614284565b9150509250929050565b60008115159050919050565b61447f8161446a565b82525050565b600060408201905061449a6000830185614476565b6144a76020830184614393565b9392505050565b600080600080600080608087890312156144cb576144ca613c8d565b5b60006144d989828a01613cb8565b96505060206144ea89828a01613cb8565b955050604087013567ffffffffffffffff81111561450b5761450a613c92565b5b61451789828a01613cdc565b9450945050606087013567ffffffffffffffff81111561453a57614539613c92565b5b61454689828a01613cdc565b92509250509295509295509295565b600082825260208201905092915050565b600061457182613f6f565b61457b8185614555565b93508360208202850161458d85613f8b565b8060005b858110156145c957848403895281516145aa8582614018565b94506145b58361402c565b925060208a01995050600181019050614591565b50829750879550505050505092915050565b600060208201905081810360008301526145f58184614566565b905092915050565b6000806040838503121561461457614613613c8d565b5b600061462285828601613cb8565b925050602061463385828601613cb8565b9150509250929050565b7f54686973206f7065726174696f6e206973206f6e6c792061636365737369626c60008201527f6520746f2061646d696e732e0000000000000000000000000000000000000000602082015250565b6000614699602c836143a2565b91506146a48261463d565b604082019050919050565b600060208201905081810360008301526146c88161468c565b9050919050565b7f41206368616e6e656c2077697468207468652070726f7669646564206964656e60008201527f74696669657220616c7265616479206578697374732e00000000000000000000602082015250565b600061472b6036836143a2565b9150614736826146cf565b604082019050919050565b6000602082019050818103600083015261475a8161471e565b9050919050565b7f4e487b7100000000000000000000000000000000000000000000000000000000600052602260045260246000fd5b600060028204905060018216806147a857607f821691505b6020821081036147bb576147ba614761565b5b50919050565b7f4e487b7100000000000000000000000000000000000000000000000000000000600052601160045260246000fd5b60006147fb82613dcd565b915061480683613dcd565b925082821015614819576148186147c1565b5b828203905092915050565b7f4e487b7100000000000000000000000000000000000000000000000000000000600052603260045260246000fd5b7f416e2061646d696e2077697468207468652070726f766964656420616464726560008201527f737320646f6573206e6f742065786973742e0000000000000000000000000000602082015250565b60006148af6032836143a2565b91506148ba82614853565b604082019050919050565b600060208201905081810360008301526148de816148a2565b9050919050565b7f4d6f64696679696e672061646d696e20737461747573206f662073656c66206960008201527f73206e6f7420616c6c6f7765642e000000000000000000000000000000000000602082015250565b6000614941602e836143a2565b915061494c826148e5565b604082019050919050565b6000602082019050818103600083015261497081614934565b9050919050565b7f4e487b7100000000000000000000000000000000000000000000000000000000600052603160045260246000fd5b7f41206368616e6e656c2077697468207468652070726f7669646564206964656e60008201527f74696669657220646f6573206e6f742065786973742e00000000000000000000602082015250565b6000614a026036836143a2565b9150614a0d826149a6565b604082019050919050565b60006020820190508181036000830152614a31816149f5565b9050919050565b7f416e2061646d696e2077697468207468652070726f766964656420616464726560008201527f737320616c7265616479206578697374732e0000000000000000000000000000602082015250565b6000614a946032836143a2565b9150614a9f82614a38565b604082019050919050565b60006020820190508181036000830152614ac381614a87565b9050919050565b7f4120706f73742077697468207468652070726f7669646564206964656e74696660008201527f69657220616c72656164792065786974732e0000000000000000000000000000602082015250565b6000614b266032836143a2565b9150614b3182614aca565b604082019050919050565b60006020820190508181036000830152614b5581614b19565b9050919050565b7f54686973206f7065726174696f6e206973206f6e6c792061636365737369626c60008201527f6520746f2061646d696e73206f7220746865206368616e6e656c2773206d616e60208201527f61676572732e0000000000000000000000000000000000000000000000000000604082015250565b6000614bde6046836143a2565b9150614be982614b5c565b606082019050919050565b60006020820190508181036000830152614c0d81614bd1565b9050919050565b7f41206d616e6167657220666f72207468652070726f7669646564206368616e6e60008201527f656c20616c7265616479206578697374732e0000000000000000000000000000602082015250565b6000614c706032836143a2565b9150614c7b82614c14565b604082019050919050565b60006020820190508181036000830152614c9f81614c63565b9050919050565b7f41206d616e616765722077697468207468652070726f7669646564206164647260008201527f65737320646f6573206e6f742065786973742e00000000000000000000000000602082015250565b6000614d026033836143a2565b9150614d0d82614ca6565b604082019050919050565b60006020820190508181036000830152614d3181614cf5565b905091905056fea2646970667358221220ed8c5237a8aa0e6d26fc7dd9e8a1b9690052493aa4357b863f4315bb4bdea87d64736f6c634300080d0033",
  "immutableReferences": {},
  "source": "// SPDX-License-Identifier: MIT\r\npragma solidity >=0.8.0 <0.9.0;\r\n\r\ncontract BlockchainBulletin { \r\n    struct Existence {\r\n        bool exists;\r\n        uint index;\r\n    }\r\n    \r\n    struct Post {\r\n        bytes32 identifier;\r\n        uint256 timestamp;\r\n        string message;\r\n        address creator;\r\n        string resourceURL;\r\n    }\r\n\r\n    struct Channel {\r\n        bytes32 identifier;\r\n        uint256 timestamp;\r\n        string description;\r\n        address[] managers;\r\n        Post[] posts;\r\n    }\r\n\r\n    address[] public admins;\r\n    Channel[] public channels;\r\n\r\n    mapping(address => Existence) public adminExistence;\r\n    mapping(bytes32 => Existence) public channelExistence;\r\n    mapping(bytes32 => mapping(bytes32 => Existence)) public postExistence;\r\n    mapping(bytes32 => mapping(address => Existence)) public managerExistence;\r\n\r\n    mapping(bytes32 => Channel) public channelFactory;\r\n\r\n    constructor() {\r\n        admins.push(msg.sender);\r\n        Existence storage existence = adminExistence[msg.sender];\r\n        existence.exists = true;\r\n        existence.index = 0;\r\n    }\r\n\r\n    modifier adminOnly {\r\n        require(\r\n            adminExistence[msg.sender].exists,\r\n            \"This operation is only accessible to admins.\"\r\n        );\r\n\r\n        _;\r\n    }\r\n\r\n    modifier managerOnly(bytes32 channelIdentifier) {\r\n        if (adminExistence[msg.sender].exists) {\r\n            _;\r\n            return;\r\n        }\r\n\r\n        require(\r\n            managerExistence[channelIdentifier][msg.sender].exists,\r\n            \"This operation is only accessible to admins or the channel's managers.\"\r\n        );\r\n\r\n        _;\r\n    }\r\n\r\n    modifier channelExists(bytes32 identifier) {\r\n        require(channelExistence[identifier].exists, \"A channel with the provided identifier does not exist.\");\r\n        _;\r\n    }\r\n\r\n    modifier channelExistsWithoutPost(bytes32 channelIdentifier, bytes32 postIdentifier) {\r\n        require(channelExistence[channelIdentifier].exists, \"A channel with the provided identifier does not exist.\");\r\n        require(!postExistence[channelIdentifier][postIdentifier].exists, \"A post with the provided identifier already exits.\");\r\n        _;\r\n    }\r\n\r\n    function getChannels() public view returns (Channel[] memory) {\r\n        return channels;\r\n    }\r\n\r\n    function createChannel(bytes32 identifier, string calldata description) public adminOnly returns (Channel[] memory) {        \r\n        Existence storage existence = channelExistence[identifier];\r\n\r\n        require(!existence.exists, \"A channel with the provided identifier already exists.\");\r\n        \r\n        channels.push(channelFactory[identifier]);\r\n        Channel storage channel = channels[channels.length - 1];\r\n        channel.identifier = identifier;\r\n        channel.timestamp = block.timestamp;\r\n        channel.description = description;\r\n        channel.managers.push(msg.sender);\r\n        \r\n        existence.exists = true;\r\n        existence.index = channels.length - 1;\r\n\r\n        return channels;\r\n    }\r\n\r\n    function deleteChannel(bytes32 identifier) public adminOnly returns (Channel[] memory) {\r\n        Existence storage existence = channelExistence[identifier];\r\n        \r\n        require(existence.exists, \"A channel with the provided identifier does not exist.\");\r\n\r\n        bytes32 existingIdentifier = channels[channels.length - 1].identifier;\r\n        channels[existence.index] = channels[channels.length - 1];\r\n        channels.pop();\r\n\r\n        channelExistence[existingIdentifier].index = existence.index;\r\n        delete channelExistence[identifier];\r\n\r\n        return channels;\r\n    }\r\n\r\n    function getAdmins() public view returns (address[] memory) {\r\n        return admins;\r\n    }\r\n\r\n    function addAdmin(address newAdmin) public adminOnly returns (address[] memory) {\r\n        Existence storage existence = adminExistence[newAdmin];\r\n\r\n        require (!existence.exists, \"An admin with the provided address already exists.\");\r\n        \r\n        admins.push(newAdmin);\r\n        existence.exists = true;\r\n        existence.index = admins.length - 1;\r\n        return admins;\r\n    }\r\n\r\n    function removeAdmin(address admin) public adminOnly returns (address[] memory) {\r\n        Existence storage existence = adminExistence[admin];\r\n\r\n        require (existence.exists, \"An admin with the provided address does not exist.\");\r\n        require (msg.sender != admin, \"Modifying admin status of self is not allowed.\");\r\n\r\n        address existingAdmin = admins[admins.length - 1];\r\n        admins[existence.index] = admins[admins.length - 1];\r\n        admins.pop();\r\n\r\n        adminExistence[existingAdmin].index = existence.index;\r\n        delete adminExistence[admin];\r\n\r\n        return admins;\r\n    }\r\n\r\n    function getPosts(bytes32 identifier) public view returns (Post[] memory) {\r\n        return channels[channelExistence[identifier].index].posts;\r\n    }\r\n\r\n    function createPost(bytes32 channelIdentifier, bytes32 postIdentifier, string calldata message, string calldata resourceURL) public channelExistsWithoutPost(channelIdentifier, postIdentifier) managerOnly(channelIdentifier) returns (Post[] memory) {\r\n        Post[] storage posts = channels[channelExistence[channelIdentifier].index].posts;\r\n\r\n        posts.push(Post({\r\n            identifier: postIdentifier,\r\n            timestamp: block.timestamp,\r\n            message: message,\r\n            creator: msg.sender,\r\n            resourceURL: resourceURL\r\n        }));\r\n\r\n        mapping(bytes32 => Existence) storage channelPostExistence = postExistence[channelIdentifier];\r\n        Existence storage existence = channelPostExistence[postIdentifier];\r\n        existence.exists = true;\r\n        existence.index = posts.length - 1;\r\n\r\n        return posts;\r\n    }\r\n\r\n    function getManagers(bytes32 identifer) public view returns (address[] memory) {\r\n        return channels[channelExistence[identifer].index].managers;\r\n    }\r\n\r\n    function addManager(bytes32 identifier, address newManager) public channelExists(identifier) managerOnly(identifier) returns (address[] memory) {\r\n        Existence storage existence = managerExistence[identifier][newManager];\r\n\r\n        require(!existence.exists, \"A manager for the provided channel already exists.\");\r\n\r\n        address[] storage managers = channels[channelExistence[identifier].index].managers;\r\n        managers.push(newManager);\r\n        existence.exists = true;\r\n        existence.index = managers.length - 1;\r\n\r\n        return managers; \r\n    }\r\n\r\n    function removeManager(bytes32 identifier, address manager) public channelExists(identifier) managerOnly(identifier) returns (address[] memory) {\r\n        Existence storage existence = managerExistence[identifier][manager];\r\n\r\n        require (existence.exists, \"A manager with the provided address does not exist.\");\r\n\r\n        address[] storage managers = channels[channelExistence[identifier].index].managers;\r\n        address existingManager = managers[managers.length - 1];\r\n        managers[existence.index] = managers[managers.length - 1];\r\n        managers.pop();\r\n\r\n        managerExistence[identifier][existingManager].index = existence.index;\r\n        delete managerExistence[identifier][manager];\r\n\r\n        return managers;\r\n    }\r\n}\r\n",
  "sourcePath": "C:\\Users\\zaida\\OneDrive\\Desktop\\Blockchain Dev\\Current Projects\\Blockchain-Bulletin\\blockchain\\contracts\\BlockchainBulletin.sol",
  "compiler": {
    "name": "solc",
    "version": "0.8.13+commit.abaa5c0e.Emscripten.clang"
  },
  "schemaVersion": "3.4.7",
  "updatedAt": "2022-07-02T02:34:27.229Z",
  "networkType": "ethereum",
  "devdoc": {
    "kind": "dev",
    "methods": {},
    "version": 1
  },
  "userdoc": {
    "kind": "user",
    "methods": {},
    "version": 1
  }
}