{
  "contractName": "BlockchainBulletin",
  "abi": [
    {
      "inputs": [
        {
          "internalType": "address",
          "name": "",
          "type": "address"
        }
      ],
      "name": "adminExistence",
      "outputs": [
        {
          "internalType": "bool",
          "name": "exists",
          "type": "bool"
        },
        {
          "internalType": "uint256",
          "name": "index",
          "type": "uint256"
        }
      ],
      "stateMutability": "view",
      "type": "function",
      "constant": true
    },
    {
      "inputs": [
        {
          "internalType": "uint256",
          "name": "",
          "type": "uint256"
        }
      ],
      "name": "admins",
      "outputs": [
        {
          "internalType": "address",
          "name": "",
          "type": "address"
        }
      ],
      "stateMutability": "view",
      "type": "function",
      "constant": true
    },
    {
      "inputs": [
        {
          "internalType": "bytes32",
          "name": "",
          "type": "bytes32"
        }
      ],
      "name": "channelExistence",
      "outputs": [
        {
          "internalType": "bool",
          "name": "exists",
          "type": "bool"
        },
        {
          "internalType": "uint256",
          "name": "index",
          "type": "uint256"
        }
      ],
      "stateMutability": "view",
      "type": "function",
      "constant": true
    },
    {
      "inputs": [
        {
          "internalType": "uint256",
          "name": "",
          "type": "uint256"
        }
      ],
      "name": "channels",
      "outputs": [
        {
          "internalType": "bytes32",
          "name": "identifier",
          "type": "bytes32"
        },
        {
          "internalType": "uint256",
          "name": "timestamp",
          "type": "uint256"
        },
        {
          "internalType": "string",
          "name": "description",
          "type": "string"
        }
      ],
      "stateMutability": "view",
      "type": "function",
      "constant": true
    },
    {
      "inputs": [
        {
          "internalType": "bytes32",
          "name": "",
          "type": "bytes32"
        },
        {
          "internalType": "address",
          "name": "",
          "type": "address"
        }
      ],
      "name": "managerExistence",
      "outputs": [
        {
          "internalType": "bool",
          "name": "exists",
          "type": "bool"
        },
        {
          "internalType": "uint256",
          "name": "index",
          "type": "uint256"
        }
      ],
      "stateMutability": "view",
      "type": "function",
      "constant": true
    },
    {
      "inputs": [
        {
          "internalType": "bytes32",
          "name": "",
          "type": "bytes32"
        },
        {
          "internalType": "bytes32",
          "name": "",
          "type": "bytes32"
        }
      ],
      "name": "postExistence",
      "outputs": [
        {
          "internalType": "bool",
          "name": "exists",
          "type": "bool"
        },
        {
          "internalType": "uint256",
          "name": "index",
          "type": "uint256"
        }
      ],
      "stateMutability": "view",
      "type": "function",
      "constant": true
    },
    {
      "inputs": [],
      "name": "getChannels",
      "outputs": [
        {
          "components": [
            {
              "internalType": "bytes32",
              "name": "identifier",
              "type": "bytes32"
            },
            {
              "internalType": "uint256",
              "name": "timestamp",
              "type": "uint256"
            },
            {
              "internalType": "string",
              "name": "description",
              "type": "string"
            },
            {
              "internalType": "address[]",
              "name": "managers",
              "type": "address[]"
            },
            {
              "components": [
                {
                  "internalType": "bytes32",
                  "name": "identifier",
                  "type": "bytes32"
                },
                {
                  "internalType": "uint256",
                  "name": "timestamp",
                  "type": "uint256"
                },
                {
                  "internalType": "string",
                  "name": "message",
                  "type": "string"
                },
                {
                  "internalType": "address",
                  "name": "creator",
                  "type": "address"
                },
                {
                  "internalType": "string",
                  "name": "resourceURL",
                  "type": "string"
                }
              ],
              "internalType": "struct BlockchainBulletin.Post[]",
              "name": "posts",
              "type": "tuple[]"
            }
          ],
          "internalType": "struct BlockchainBulletin.Channel[]",
          "name": "",
          "type": "tuple[]"
        }
      ],
      "stateMutability": "view",
      "type": "function",
      "constant": true
    },
    {
      "inputs": [
        {
          "internalType": "bytes32",
          "name": "identifier",
          "type": "bytes32"
        },
        {
          "internalType": "string",
          "name": "description",
          "type": "string"
        }
      ],
      "name": "createChannel",
      "outputs": [
        {
          "components": [
            {
              "internalType": "bytes32",
              "name": "identifier",
              "type": "bytes32"
            },
            {
              "internalType": "uint256",
              "name": "timestamp",
              "type": "uint256"
            },
            {
              "internalType": "string",
              "name": "description",
              "type": "string"
            },
            {
              "internalType": "address[]",
              "name": "managers",
              "type": "address[]"
            },
            {
              "components": [
                {
                  "internalType": "bytes32",
                  "name": "identifier",
                  "type": "bytes32"
                },
                {
                  "internalType": "uint256",
                  "name": "timestamp",
                  "type": "uint256"
                },
                {
                  "internalType": "string",
                  "name": "message",
                  "type": "string"
                },
                {
                  "internalType": "address",
                  "name": "creator",
                  "type": "address"
                },
                {
                  "internalType": "string",
                  "name": "resourceURL",
                  "type": "string"
                }
              ],
              "internalType": "struct BlockchainBulletin.Post[]",
              "name": "posts",
              "type": "tuple[]"
            }
          ],
          "internalType": "struct BlockchainBulletin.Channel[]",
          "name": "",
          "type": "tuple[]"
        }
      ],
      "stateMutability": "nonpayable",
      "type": "function"
    },
    {
      "inputs": [
        {
          "internalType": "bytes32",
          "name": "identifier",
          "type": "bytes32"
        }
      ],
      "name": "deleteChannel",
      "outputs": [
        {
          "components": [
            {
              "internalType": "bytes32",
              "name": "identifier",
              "type": "bytes32"
            },
            {
              "internalType": "uint256",
              "name": "timestamp",
              "type": "uint256"
            },
            {
              "internalType": "string",
              "name": "description",
              "type": "string"
            },
            {
              "internalType": "address[]",
              "name": "managers",
              "type": "address[]"
            },
            {
              "components": [
                {
                  "internalType": "bytes32",
                  "name": "identifier",
                  "type": "bytes32"
                },
                {
                  "internalType": "uint256",
                  "name": "timestamp",
                  "type": "uint256"
                },
                {
                  "internalType": "string",
                  "name": "message",
                  "type": "string"
                },
                {
                  "internalType": "address",
                  "name": "creator",
                  "type": "address"
                },
                {
                  "internalType": "string",
                  "name": "resourceURL",
                  "type": "string"
                }
              ],
              "internalType": "struct BlockchainBulletin.Post[]",
              "name": "posts",
              "type": "tuple[]"
            }
          ],
          "internalType": "struct BlockchainBulletin.Channel[]",
          "name": "",
          "type": "tuple[]"
        }
      ],
      "stateMutability": "nonpayable",
      "type": "function"
    },
    {
      "inputs": [],
      "name": "getAdmins",
      "outputs": [
        {
          "internalType": "address[]",
          "name": "",
          "type": "address[]"
        }
      ],
      "stateMutability": "view",
      "type": "function",
      "constant": true
    },
    {
      "inputs": [
        {
          "internalType": "address",
          "name": "newAdmin",
          "type": "address"
        }
      ],
      "name": "addAdmin",
      "outputs": [
        {
          "internalType": "address[]",
          "name": "",
          "type": "address[]"
        }
      ],
      "stateMutability": "nonpayable",
      "type": "function"
    },
    {
      "inputs": [
        {
          "internalType": "address",
          "name": "admin",
          "type": "address"
        }
      ],
      "name": "removeAdmin",
      "outputs": [
        {
          "internalType": "address[]",
          "name": "",
          "type": "address[]"
        }
      ],
      "stateMutability": "nonpayable",
      "type": "function"
    },
    {
      "inputs": [
        {
          "internalType": "bytes32",
          "name": "identifier",
          "type": "bytes32"
        }
      ],
      "name": "getPosts",
      "outputs": [
        {
          "components": [
            {
              "internalType": "bytes32",
              "name": "identifier",
              "type": "bytes32"
            },
            {
              "internalType": "uint256",
              "name": "timestamp",
              "type": "uint256"
            },
            {
              "internalType": "string",
              "name": "message",
              "type": "string"
            },
            {
              "internalType": "address",
              "name": "creator",
              "type": "address"
            },
            {
              "internalType": "string",
              "name": "resourceURL",
              "type": "string"
            }
          ],
          "internalType": "struct BlockchainBulletin.Post[]",
          "name": "",
          "type": "tuple[]"
        }
      ],
      "stateMutability": "view",
      "type": "function",
      "constant": true
    },
    {
      "inputs": [
        {
          "internalType": "bytes32",
          "name": "channelIdentifier",
          "type": "bytes32"
        },
        {
          "internalType": "bytes32",
          "name": "postIdentifier",
          "type": "bytes32"
        },
        {
          "internalType": "string",
          "name": "message",
          "type": "string"
        },
        {
          "internalType": "string",
          "name": "resourceURL",
          "type": "string"
        }
      ],
      "name": "createPost",
      "outputs": [
        {
          "components": [
            {
              "internalType": "bytes32",
              "name": "identifier",
              "type": "bytes32"
            },
            {
              "internalType": "uint256",
              "name": "timestamp",
              "type": "uint256"
            },
            {
              "internalType": "string",
              "name": "message",
              "type": "string"
            },
            {
              "internalType": "address",
              "name": "creator",
              "type": "address"
            },
            {
              "internalType": "string",
              "name": "resourceURL",
              "type": "string"
            }
          ],
          "internalType": "struct BlockchainBulletin.Post[]",
          "name": "",
          "type": "tuple[]"
        }
      ],
      "stateMutability": "nonpayable",
      "type": "function"
    },
    {
      "inputs": [
        {
          "internalType": "bytes32",
          "name": "identifer",
          "type": "bytes32"
        }
      ],
      "name": "getManagers",
      "outputs": [
        {
          "internalType": "address[]",
          "name": "",
          "type": "address[]"
        }
      ],
      "stateMutability": "view",
      "type": "function",
      "constant": true
    },
    {
      "inputs": [
        {
          "internalType": "bytes32",
          "name": "identifier",
          "type": "bytes32"
        },
        {
          "internalType": "address",
          "name": "newManager",
          "type": "address"
        }
      ],
      "name": "addManager",
      "outputs": [
        {
          "internalType": "address[]",
          "name": "",
          "type": "address[]"
        }
      ],
      "stateMutability": "nonpayable",
      "type": "function"
    },
    {
      "inputs": [
        {
          "internalType": "bytes32",
          "name": "identifier",
          "type": "bytes32"
        },
        {
          "internalType": "address",
          "name": "manager",
          "type": "address"
        }
      ],
      "name": "removeManager",
      "outputs": [
        {
          "internalType": "address[]",
          "name": "",
          "type": "address[]"
        }
      ],
      "stateMutability": "nonpayable",
      "type": "function"
    }
  ],
  "bytecode": "0x608060405260405180602001604052803373ffffffffffffffffffffffffffffffffffffffff1673ffffffffffffffffffffffffffffffffffffffff1681525060009060016200005192919062000066565b503480156200005f57600080fd5b5062000114565b828054828255906000526020600020908101928215620000e2579160200282015b82811115620000e15782518260006101000a81548173ffffffffffffffffffffffffffffffffffffffff021916908373ffffffffffffffffffffffffffffffffffffffff1602179055509160200191906001019062000087565b5b509050620000f19190620000f5565b5090565b5b8082111562000110576000816000905550600101620000f6565b5090565b614c6c80620001246000396000f3fe608060405234801561001057600080fd5b506004361061010b5760003560e01c806370480275116100a2578063b0b052c211610071578063b0b052c21461032f578063b21aa96c1461035f578063ce438c161461038f578063e5949b5d146103bf578063ec353def146103f15761010b565b806370480275146102805780637bc4f54a146102b0578063924b446a146102e15780639575f6ac146103115761010b565b80632e2c0898116100de5780632e2c0898146101d057806331ae450b146102015780634c2c90811461021f57806360cb5fac146102505761010b565b806304b7ea961461011057806314bfd6d0146101405780631785f53c146101705780632c40c28d146101a0575b600080fd5b61012a60048036038101906101259190613c30565b610422565b60405161013791906140c6565b60405180910390f35b61015a60048036038101906101559190614114565b61099b565b6040516101679190614150565b60405180910390f35b61018a60048036038101906101859190614197565b6109da565b6040516101979190614233565b60405180910390f35b6101ba60048036038101906101b59190614255565b610df0565b6040516101c79190614233565b60405180910390f35b6101ea60048036038101906101e59190614282565b610eb9565b6040516101f89291906142ec565b60405180910390f35b610209610ef7565b6040516102169190614233565b60405180910390f35b61023960048036038101906102349190614197565b610f85565b6040516102479291906142ec565b60405180910390f35b61026a60048036038101906102659190614255565b610fb6565b60405161027791906140c6565b60405180910390f35b61029a60048036038101906102959190614197565b6115e2565b6040516102a79190614233565b60405180910390f35b6102ca60048036038101906102c59190614255565b611831565b6040516102d89291906142ec565b60405180910390f35b6102fb60048036038101906102f69190614315565b611862565b6040516103089190614442565b60405180910390f35b61031961226b565b60405161032691906140c6565b60405180910390f35b61034960048036038101906103449190614282565b6125eb565b6040516103569190614233565b60405180910390f35b61037960048036038101906103749190614282565b612b63565b6040516103869190614233565b60405180910390f35b6103a960048036038101906103a49190614255565b6133cb565b6040516103b69190614442565b60405180910390f35b6103d960048036038101906103d49190614114565b6135f3565b6040516103e8939291906144bd565b60405180910390f35b61040b600480360381019061040691906144fb565b6136b5565b6040516104199291906142ec565b60405180910390f35b6060600260003373ffffffffffffffffffffffffffffffffffffffff1673ffffffffffffffffffffffffffffffffffffffff16815260200190815260200160002060000160009054906101000a900460ff166104b3576040517f08c379a00000000000000000000000000000000000000000000000000000000081526004016104aa906145ad565b60405180910390fd5b60006003600086815260200190815260200160002090508060000160009054906101000a900460ff1661051b576040517f08c379a00000000000000000000000000000000000000000000000000000000081526004016105129061463f565b60405180910390fd5b606033816000815181106105325761053161465f565b5b602002602001019073ffffffffffffffffffffffffffffffffffffffff16908173ffffffffffffffffffffffffffffffffffffffff16815250506000600180808054905061058091906146bd565b815481106105915761059061465f565b5b9060005260206000209060050201905086816000018190555042816001018190555085858260020191906105c69291906136f3565b50818160030190805190602001906105df929190613779565b5060018360000160006101000a81548160ff0219169083151502179055506001808054905061060e91906146bd565b83600101819055506001805480602002602001604051908101604052809291908181526020016000905b8282101561098b57838290600052602060002090600502016040518060a0016040529081600082015481526020016001820154815260200160028201805461067f90614720565b80601f01602080910402602001604051908101604052809291908181526020018280546106ab90614720565b80156106f85780601f106106cd576101008083540402835291602001916106f8565b820191906000526020600020905b8154815290600101906020018083116106db57829003601f168201915b505050505081526020016003820180548060200260200160405190810160405280929190818152602001828054801561078657602002820191906000526020600020905b8160009054906101000a900473ffffffffffffffffffffffffffffffffffffffff1673ffffffffffffffffffffffffffffffffffffffff168152602001906001019080831161073c575b5050505050815260200160048201805480602002602001604051908101604052809291908181526020016000905b8282101561097457838290600052602060002090600502016040518060a001604052908160008201548152602001600182015481526020016002820180546107fb90614720565b80601f016020809104026020016040519081016040528092919081815260200182805461082790614720565b80156108745780601f1061084957610100808354040283529160200191610874565b820191906000526020600020905b81548152906001019060200180831161085757829003601f168201915b505050505081526020016003820160009054906101000a900473ffffffffffffffffffffffffffffffffffffffff1673ffffffffffffffffffffffffffffffffffffffff1673ffffffffffffffffffffffffffffffffffffffff1681526020016004820180546108e390614720565b80601f016020809104026020016040519081016040528092919081815260200182805461090f90614720565b801561095c5780601f106109315761010080835404028352916020019161095c565b820191906000526020600020905b81548152906001019060200180831161093f57829003601f168201915b505050505081525050815260200190600101906107b4565b505050508152505081526020019060010190610638565b5050505093505050509392505050565b600081815481106109ab57600080fd5b906000526020600020016000915054906101000a900473ffffffffffffffffffffffffffffffffffffffff1681565b6060600260003373ffffffffffffffffffffffffffffffffffffffff1673ffffffffffffffffffffffffffffffffffffffff16815260200190815260200160002060000160009054906101000a900460ff16610a6b576040517f08c379a0000000000000000000000000000000000000000000000000000000008152600401610a62906145ad565b60405180910390fd5b6000600260008473ffffffffffffffffffffffffffffffffffffffff1673ffffffffffffffffffffffffffffffffffffffff16815260200190815260200160002090508060000160009054906101000a900460ff16610aff576040517f08c379a0000000000000000000000000000000000000000000000000000000008152600401610af6906147c3565b60405180910390fd5b8273ffffffffffffffffffffffffffffffffffffffff163373ffffffffffffffffffffffffffffffffffffffff1603610b6d576040517f08c379a0000000000000000000000000000000000000000000000000000000008152600401610b6490614855565b60405180910390fd5b6000806001600080549050610b8291906146bd565b81548110610b9357610b9261465f565b5b9060005260206000200160009054906101000a900473ffffffffffffffffffffffffffffffffffffffff16905060006001600080549050610bd491906146bd565b81548110610be557610be461465f565b5b9060005260206000200160009054906101000a900473ffffffffffffffffffffffffffffffffffffffff166000836001015481548110610c2857610c2761465f565b5b9060005260206000200160006101000a81548173ffffffffffffffffffffffffffffffffffffffff021916908373ffffffffffffffffffffffffffffffffffffffff1602179055506000805480610c8257610c81614875565b5b6001900381819060005260206000200160006101000a81549073ffffffffffffffffffffffffffffffffffffffff021916905590558160010154600260008373ffffffffffffffffffffffffffffffffffffffff1673ffffffffffffffffffffffffffffffffffffffff16815260200190815260200160002060010181905550600260008573ffffffffffffffffffffffffffffffffffffffff1673ffffffffffffffffffffffffffffffffffffffff168152602001908152602001600020600080820160006101000a81549060ff0219169055600182016000905550506000805480602002602001604051908101604052809291908181526020018280548015610de257602002820191906000526020600020905b8160009054906101000a900473ffffffffffffffffffffffffffffffffffffffff1673ffffffffffffffffffffffffffffffffffffffff1681526020019060010190808311610d98575b505050505092505050919050565b60606001600360008481526020019081526020016000206001015481548110610e1c57610e1b61465f565b5b9060005260206000209060050201600301805480602002602001604051908101604052809291908181526020018280548015610ead57602002820191906000526020600020905b8160009054906101000a900473ffffffffffffffffffffffffffffffffffffffff1673ffffffffffffffffffffffffffffffffffffffff1681526020019060010190808311610e63575b50505050509050919050565b6005602052816000526040600020602052806000526040600020600091509150508060000160009054906101000a900460ff16908060010154905082565b60606000805480602002602001604051908101604052809291908181526020018280548015610f7b57602002820191906000526020600020905b8160009054906101000a900473ffffffffffffffffffffffffffffffffffffffff1673ffffffffffffffffffffffffffffffffffffffff1681526020019060010190808311610f31575b5050505050905090565b60026020528060005260406000206000915090508060000160009054906101000a900460ff16908060010154905082565b6060600260003373ffffffffffffffffffffffffffffffffffffffff1673ffffffffffffffffffffffffffffffffffffffff16815260200190815260200160002060000160009054906101000a900460ff16611047576040517f08c379a000000000000000000000000000000000000000000000000000000000815260040161103e906145ad565b60405180910390fd5b60006003600084815260200190815260200160002090508060000160009054906101000a900460ff166110af576040517f08c379a00000000000000000000000000000000000000000000000000000000081526004016110a690614916565b60405180910390fd5b600060018080805490506110c391906146bd565b815481106110d4576110d361465f565b5b906000526020600020906005020160000154905060018080805490506110fa91906146bd565b8154811061110b5761110a61465f565b5b906000526020600020906005020160018360010154815481106111315761113061465f565b5b90600052602060002090600502016000820154816000015560018201548160010155600282018160020190805461116790614720565b611172929190613803565b506003820181600301908054611189929190613890565b5060048201816004019080546111a09291906138e2565b5090505060018054806111b6576111b5614875565b5b600190038181906000526020600020906005020160008082016000905560018201600090556002820160006111eb91906139f5565b6003820160006111fb9190613a35565b60048201600061120b9190613a56565b505090558160010154600360008381526020019081526020016000206001018190555060036000858152602001908152602001600020600080820160006101000a81549060ff0219169055600182016000905550506001805480602002602001604051908101604052809291908181526020016000905b828210156115d557838290600052602060002090600502016040518060a001604052908160008201548152602001600182015481526020016002820180546112c990614720565b80601f01602080910402602001604051908101604052809291908181526020018280546112f590614720565b80156113425780601f1061131757610100808354040283529160200191611342565b820191906000526020600020905b81548152906001019060200180831161132557829003601f168201915b50505050508152602001600382018054806020026020016040519081016040528092919081815260200182805480156113d057602002820191906000526020600020905b8160009054906101000a900473ffffffffffffffffffffffffffffffffffffffff1673ffffffffffffffffffffffffffffffffffffffff1681526020019060010190808311611386575b5050505050815260200160048201805480602002602001604051908101604052809291908181526020016000905b828210156115be57838290600052602060002090600502016040518060a0016040529081600082015481526020016001820154815260200160028201805461144590614720565b80601f016020809104026020016040519081016040528092919081815260200182805461147190614720565b80156114be5780601f10611493576101008083540402835291602001916114be565b820191906000526020600020905b8154815290600101906020018083116114a157829003601f168201915b505050505081526020016003820160009054906101000a900473ffffffffffffffffffffffffffffffffffffffff1673ffffffffffffffffffffffffffffffffffffffff1673ffffffffffffffffffffffffffffffffffffffff16815260200160048201805461152d90614720565b80601f016020809104026020016040519081016040528092919081815260200182805461155990614720565b80156115a65780601f1061157b576101008083540402835291602001916115a6565b820191906000526020600020905b81548152906001019060200180831161158957829003601f168201915b505050505081525050815260200190600101906113fe565b505050508152505081526020019060010190611282565b5050505092505050919050565b6060600260003373ffffffffffffffffffffffffffffffffffffffff1673ffffffffffffffffffffffffffffffffffffffff16815260200190815260200160002060000160009054906101000a900460ff16611673576040517f08c379a000000000000000000000000000000000000000000000000000000000815260040161166a906145ad565b60405180910390fd5b6000600260008473ffffffffffffffffffffffffffffffffffffffff1673ffffffffffffffffffffffffffffffffffffffff16815260200190815260200160002090508060000160009054906101000a900460ff1615611708576040517f08c379a00000000000000000000000000000000000000000000000000000000081526004016116ff906149a8565b60405180910390fd5b6000839080600181540180825580915050600190039060005260206000200160009091909190916101000a81548173ffffffffffffffffffffffffffffffffffffffff021916908373ffffffffffffffffffffffffffffffffffffffff16021790555060018160000160006101000a81548160ff021916908315150217905550600160008054905061179a91906146bd565b8160010181905550600080548060200260200160405190810160405280929190818152602001828054801561182457602002820191906000526020600020905b8160009054906101000a900473ffffffffffffffffffffffffffffffffffffffff1673ffffffffffffffffffffffffffffffffffffffff16815260200190600101908083116117da575b5050505050915050919050565b60036020528060005260406000206000915090508060000160009054906101000a900460ff16908060010154905082565b606086866003600083815260200190815260200160002060000160009054906101000a900460ff166118c9576040517f08c379a00000000000000000000000000000000000000000000000000000000081526004016118c090614916565b60405180910390fd5b60046000838152602001908152602001600020600082815260200190815260200160002060000160009054906101000a900460ff161561193e576040517f08c379a000000000000000000000000000000000000000000000000000000000815260040161193590614a3a565b60405180910390fd5b88600260003373ffffffffffffffffffffffffffffffffffffffff1673ffffffffffffffffffffffffffffffffffffffff16815260200190815260200160002060000160009054906101000a900460ff1615611dab5760006001600360008d815260200190815260200160002060010154815481106119c0576119bf61465f565b5b90600052602060002090600502016004019050806040518060a001604052808c81526020014281526020018b8b8080601f016020809104026020016040519081016040528093929190818152602001838380828437600081840152601f19601f8201169050808301925050505050505081526020013373ffffffffffffffffffffffffffffffffffffffff16815260200189898080601f016020809104026020016040519081016040528093929190818152602001838380828437600081840152601f19601f82011690508083019250505050505050815250908060018154018082558091505060019003906000526020600020906005020160009091909190915060008201518160000155602082015181600101556040820151816002019080519060200190611af2929190613a7a565b5060608201518160030160006101000a81548173ffffffffffffffffffffffffffffffffffffffff021916908373ffffffffffffffffffffffffffffffffffffffff1602179055506080820151816004019080519060200190611b56929190613a7a565b5050506000600460008d8152602001908152602001600020905060008160008d8152602001908152602001600020905060018160000160006101000a81548160ff02191690831515021790555060018380549050611bb491906146bd565b816001018190555082805480602002602001604051908101604052809291908181526020016000905b82821015611d9d57838290600052602060002090600502016040518060a00160405290816000820154815260200160018201548152602001600282018054611c2490614720565b80601f0160208091040260200160405190810160405280929190818152602001828054611c5090614720565b8015611c9d5780601f10611c7257610100808354040283529160200191611c9d565b820191906000526020600020905b815481529060010190602001808311611c8057829003601f168201915b505050505081526020016003820160009054906101000a900473ffffffffffffffffffffffffffffffffffffffff1673ffffffffffffffffffffffffffffffffffffffff1673ffffffffffffffffffffffffffffffffffffffff168152602001600482018054611d0c90614720565b80601f0160208091040260200160405190810160405280929190818152602001828054611d3890614720565b8015611d855780601f10611d5a57610100808354040283529160200191611d85565b820191906000526020600020905b815481529060010190602001808311611d6857829003601f168201915b50505050508152505081526020019060010190611bdd565b50505050965050505061225e565b6005600082815260200190815260200160002060003373ffffffffffffffffffffffffffffffffffffffff1673ffffffffffffffffffffffffffffffffffffffff16815260200190815260200160002060000160009054906101000a900460ff16611e4b576040517f08c379a0000000000000000000000000000000000000000000000000000000008152600401611e4290614af2565b60405180910390fd5b60006001600360008d81526020019081526020016000206001015481548110611e7757611e7661465f565b5b90600052602060002090600502016004019050806040518060a001604052808c81526020014281526020018b8b8080601f016020809104026020016040519081016040528093929190818152602001838380828437600081840152601f19601f8201169050808301925050505050505081526020013373ffffffffffffffffffffffffffffffffffffffff16815260200189898080601f016020809104026020016040519081016040528093929190818152602001838380828437600081840152601f19601f82011690508083019250505050505050815250908060018154018082558091505060019003906000526020600020906005020160009091909190915060008201518160000155602082015181600101556040820151816002019080519060200190611fa9929190613a7a565b5060608201518160030160006101000a81548173ffffffffffffffffffffffffffffffffffffffff021916908373ffffffffffffffffffffffffffffffffffffffff160217905550608082015181600401908051906020019061200d929190613a7a565b5050506000600460008d8152602001908152602001600020905060008160008d8152602001908152602001600020905060018160000160006101000a81548160ff0219169083151502179055506001838054905061206b91906146bd565b816001018190555082805480602002602001604051908101604052809291908181526020016000905b8282101561225457838290600052602060002090600502016040518060a001604052908160008201548152602001600182015481526020016002820180546120db90614720565b80601f016020809104026020016040519081016040528092919081815260200182805461210790614720565b80156121545780601f1061212957610100808354040283529160200191612154565b820191906000526020600020905b81548152906001019060200180831161213757829003601f168201915b505050505081526020016003820160009054906101000a900473ffffffffffffffffffffffffffffffffffffffff1673ffffffffffffffffffffffffffffffffffffffff1673ffffffffffffffffffffffffffffffffffffffff1681526020016004820180546121c390614720565b80601f01602080910402602001604051908101604052809291908181526020018280546121ef90614720565b801561223c5780601f106122115761010080835404028352916020019161223c565b820191906000526020600020905b81548152906001019060200180831161221f57829003601f168201915b50505050508152505081526020019060010190612094565b5050505096505050505b5050509695505050505050565b60606001805480602002602001604051908101604052809291908181526020016000905b828210156125e257838290600052602060002090600502016040518060a001604052908160008201548152602001600182015481526020016002820180546122d690614720565b80601f016020809104026020016040519081016040528092919081815260200182805461230290614720565b801561234f5780601f106123245761010080835404028352916020019161234f565b820191906000526020600020905b81548152906001019060200180831161233257829003601f168201915b50505050508152602001600382018054806020026020016040519081016040528092919081815260200182805480156123dd57602002820191906000526020600020905b8160009054906101000a900473ffffffffffffffffffffffffffffffffffffffff1673ffffffffffffffffffffffffffffffffffffffff1681526020019060010190808311612393575b5050505050815260200160048201805480602002602001604051908101604052809291908181526020016000905b828210156125cb57838290600052602060002090600502016040518060a0016040529081600082015481526020016001820154815260200160028201805461245290614720565b80601f016020809104026020016040519081016040528092919081815260200182805461247e90614720565b80156124cb5780601f106124a0576101008083540402835291602001916124cb565b820191906000526020600020905b8154815290600101906020018083116124ae57829003601f168201915b505050505081526020016003820160009054906101000a900473ffffffffffffffffffffffffffffffffffffffff1673ffffffffffffffffffffffffffffffffffffffff1673ffffffffffffffffffffffffffffffffffffffff16815260200160048201805461253a90614720565b80601f016020809104026020016040519081016040528092919081815260200182805461256690614720565b80156125b35780601f10612588576101008083540402835291602001916125b3565b820191906000526020600020905b81548152906001019060200180831161259657829003601f168201915b5050505050815250508152602001906001019061240b565b50505050815250508152602001906001019061228f565b50505050905090565b6060826003600082815260200190815260200160002060000160009054906101000a900460ff16612651576040517f08c379a000000000000000000000000000000000000000000000000000000000815260040161264890614916565b60405180910390fd5b83600260003373ffffffffffffffffffffffffffffffffffffffff1673ffffffffffffffffffffffffffffffffffffffff16815260200190815260200160002060000160009054906101000a900460ff16156128b35760006005600087815260200190815260200160002060008673ffffffffffffffffffffffffffffffffffffffff1673ffffffffffffffffffffffffffffffffffffffff16815260200190815260200160002090508060000160009054906101000a900460ff161561274d576040517f08c379a000000000000000000000000000000000000000000000000000000000815260040161274490614b84565b60405180910390fd5b600060016003600089815260200190815260200160002060010154815481106127795761277861465f565b5b9060005260206000209060050201600301905080869080600181540180825580915050600190039060005260206000200160009091909190916101000a81548173ffffffffffffffffffffffffffffffffffffffff021916908373ffffffffffffffffffffffffffffffffffffffff16021790555060018260000160006101000a81548160ff0219169083151502179055506001818054905061281c91906146bd565b8260010181905550808054806020026020016040519081016040528092919081815260200182805480156128a557602002820191906000526020600020905b8160009054906101000a900473ffffffffffffffffffffffffffffffffffffffff1673ffffffffffffffffffffffffffffffffffffffff168152602001906001019080831161285b575b505050505094505050612b5b565b6005600082815260200190815260200160002060003373ffffffffffffffffffffffffffffffffffffffff1673ffffffffffffffffffffffffffffffffffffffff16815260200190815260200160002060000160009054906101000a900460ff16612953576040517f08c379a000000000000000000000000000000000000000000000000000000000815260040161294a90614af2565b60405180910390fd5b60006005600087815260200190815260200160002060008673ffffffffffffffffffffffffffffffffffffffff1673ffffffffffffffffffffffffffffffffffffffff16815260200190815260200160002090508060000160009054906101000a900460ff16156129f9576040517f08c379a00000000000000000000000000000000000000000000000000000000081526004016129f090614b84565b60405180910390fd5b60006001600360008981526020019081526020016000206001015481548110612a2557612a2461465f565b5b9060005260206000209060050201600301905080869080600181540180825580915050600190039060005260206000200160009091909190916101000a81548173ffffffffffffffffffffffffffffffffffffffff021916908373ffffffffffffffffffffffffffffffffffffffff16021790555060018260000160006101000a81548160ff02191690831515021790555060018180549050612ac891906146bd565b826001018190555080805480602002602001604051908101604052809291908181526020018280548015612b5157602002820191906000526020600020905b8160009054906101000a900473ffffffffffffffffffffffffffffffffffffffff1673ffffffffffffffffffffffffffffffffffffffff1681526020019060010190808311612b07575b5050505050945050505b505092915050565b6060826003600082815260200190815260200160002060000160009054906101000a900460ff16612bc9576040517f08c379a0000000000000000000000000000000000000000000000000000000008152600401612bc090614916565b60405180910390fd5b83600260003373ffffffffffffffffffffffffffffffffffffffff1673ffffffffffffffffffffffffffffffffffffffff16815260200190815260200160002060000160009054906101000a900460ff1615612fa35760006005600087815260200190815260200160002060008673ffffffffffffffffffffffffffffffffffffffff1673ffffffffffffffffffffffffffffffffffffffff16815260200190815260200160002090508060000160009054906101000a900460ff16612cc4576040517f08c379a0000000000000000000000000000000000000000000000000000000008152600401612cbb90614c16565b60405180910390fd5b60006001600360008981526020019081526020016000206001015481548110612cf057612cef61465f565b5b9060005260206000209060050201600301905060008160018380549050612d1791906146bd565b81548110612d2857612d2761465f565b5b9060005260206000200160009054906101000a900473ffffffffffffffffffffffffffffffffffffffff1690508160018380549050612d6791906146bd565b81548110612d7857612d7761465f565b5b9060005260206000200160009054906101000a900473ffffffffffffffffffffffffffffffffffffffff1682846001015481548110612dba57612db961465f565b5b9060005260206000200160006101000a81548173ffffffffffffffffffffffffffffffffffffffff021916908373ffffffffffffffffffffffffffffffffffffffff16021790555081805480612e1357612e12614875565b5b6001900381819060005260206000200160006101000a81549073ffffffffffffffffffffffffffffffffffffffff021916905590558260010154600560008a815260200190815260200160002060008373ffffffffffffffffffffffffffffffffffffffff1673ffffffffffffffffffffffffffffffffffffffff168152602001908152602001600020600101819055506005600089815260200190815260200160002060008873ffffffffffffffffffffffffffffffffffffffff1673ffffffffffffffffffffffffffffffffffffffff168152602001908152602001600020600080820160006101000a81549060ff02191690556001820160009055505081805480602002602001604051908101604052809291908181526020018280548015612f9457602002820191906000526020600020905b8160009054906101000a900473ffffffffffffffffffffffffffffffffffffffff1673ffffffffffffffffffffffffffffffffffffffff1681526020019060010190808311612f4a575b505050505095505050506133c3565b6005600082815260200190815260200160002060003373ffffffffffffffffffffffffffffffffffffffff1673ffffffffffffffffffffffffffffffffffffffff16815260200190815260200160002060000160009054906101000a900460ff16613043576040517f08c379a000000000000000000000000000000000000000000000000000000000815260040161303a90614af2565b60405180910390fd5b60006005600087815260200190815260200160002060008673ffffffffffffffffffffffffffffffffffffffff1673ffffffffffffffffffffffffffffffffffffffff16815260200190815260200160002090508060000160009054906101000a900460ff166130e8576040517f08c379a00000000000000000000000000000000000000000000000000000000081526004016130df90614c16565b60405180910390fd5b600060016003600089815260200190815260200160002060010154815481106131145761311361465f565b5b906000526020600020906005020160030190506000816001838054905061313b91906146bd565b8154811061314c5761314b61465f565b5b9060005260206000200160009054906101000a900473ffffffffffffffffffffffffffffffffffffffff169050816001838054905061318b91906146bd565b8154811061319c5761319b61465f565b5b9060005260206000200160009054906101000a900473ffffffffffffffffffffffffffffffffffffffff16828460010154815481106131de576131dd61465f565b5b9060005260206000200160006101000a81548173ffffffffffffffffffffffffffffffffffffffff021916908373ffffffffffffffffffffffffffffffffffffffff1602179055508180548061323757613236614875565b5b6001900381819060005260206000200160006101000a81549073ffffffffffffffffffffffffffffffffffffffff021916905590558260010154600560008a815260200190815260200160002060008373ffffffffffffffffffffffffffffffffffffffff1673ffffffffffffffffffffffffffffffffffffffff168152602001908152602001600020600101819055506005600089815260200190815260200160002060008873ffffffffffffffffffffffffffffffffffffffff1673ffffffffffffffffffffffffffffffffffffffff168152602001908152602001600020600080820160006101000a81549060ff021916905560018201600090555050818054806020026020016040519081016040528092919081815260200182805480156133b857602002820191906000526020600020905b8160009054906101000a900473ffffffffffffffffffffffffffffffffffffffff1673ffffffffffffffffffffffffffffffffffffffff168152602001906001019080831161336e575b505050505095505050505b505092915050565b606060016003600084815260200190815260200160002060010154815481106133f7576133f661465f565b5b9060005260206000209060050201600401805480602002602001604051908101604052809291908181526020016000905b828210156135e857838290600052602060002090600502016040518060a0016040529081600082015481526020016001820154815260200160028201805461346f90614720565b80601f016020809104026020016040519081016040528092919081815260200182805461349b90614720565b80156134e85780601f106134bd576101008083540402835291602001916134e8565b820191906000526020600020905b8154815290600101906020018083116134cb57829003601f168201915b505050505081526020016003820160009054906101000a900473ffffffffffffffffffffffffffffffffffffffff1673ffffffffffffffffffffffffffffffffffffffff1673ffffffffffffffffffffffffffffffffffffffff16815260200160048201805461355790614720565b80601f016020809104026020016040519081016040528092919081815260200182805461358390614720565b80156135d05780601f106135a5576101008083540402835291602001916135d0565b820191906000526020600020905b8154815290600101906020018083116135b357829003601f168201915b50505050508152505081526020019060010190613428565b505050509050919050565b6001818154811061360357600080fd5b906000526020600020906005020160009150905080600001549080600101549080600201805461363290614720565b80601f016020809104026020016040519081016040528092919081815260200182805461365e90614720565b80156136ab5780601f10613680576101008083540402835291602001916136ab565b820191906000526020600020905b81548152906001019060200180831161368e57829003601f168201915b5050505050905083565b6004602052816000526040600020602052806000526040600020600091509150508060000160009054906101000a900460ff16908060010154905082565b8280546136ff90614720565b90600052602060002090601f0160209004810192826137215760008555613768565b82601f1061373a57803560ff1916838001178555613768565b82800160010185558215613768579182015b8281111561376757823582559160200191906001019061374c565b5b5090506137759190613b00565b5090565b8280548282559060005260206000209081019282156137f2579160200282015b828111156137f15782518260006101000a81548173ffffffffffffffffffffffffffffffffffffffff021916908373ffffffffffffffffffffffffffffffffffffffff16021790555091602001919060010190613799565b5b5090506137ff9190613b00565b5090565b82805461380f90614720565b90600052602060002090601f016020900481019282613831576000855561387f565b82601f10613842578054855561387f565b8280016001018555821561387f57600052602060002091601f016020900482015b8281111561387e578254825591600101919060010190613863565b5b50905061388c9190613b00565b5090565b8280548282559060005260206000209081019282156138d15760005260206000209182015b828111156138d05782548255916001019190600101906138b5565b5b5090506138de9190613b00565b5090565b8280548282559060005260206000209060050281019282156139e45760005260206000209160050282015b828111156139e35782826000820154816000015560018201548160010155600282018160020190805461393f90614720565b61394a929190613803565b506003820160009054906101000a900473ffffffffffffffffffffffffffffffffffffffff168160030160006101000a81548173ffffffffffffffffffffffffffffffffffffffff021916908373ffffffffffffffffffffffffffffffffffffffff16021790555060048201816004019080546139c690614720565b6139d1929190613803565b5050509160050191906005019061390d565b5b5090506139f19190613b1d565b5090565b508054613a0190614720565b6000825580601f10613a135750613a32565b601f016020900490600052602060002090810190613a319190613b00565b5b50565b5080546000825590600052602060002090810190613a539190613b00565b50565b5080546000825560050290600052602060002090810190613a779190613b1d565b50565b828054613a8690614720565b90600052602060002090601f016020900481019282613aa85760008555613aef565b82601f10613ac157805160ff1916838001178555613aef565b82800160010185558215613aef579182015b82811115613aee578251825591602001919060010190613ad3565b5b509050613afc9190613b00565b5090565b5b80821115613b19576000816000905550600101613b01565b5090565b5b80821115613b87576000808201600090556001820160009055600282016000613b4791906139f5565b6003820160006101000a81549073ffffffffffffffffffffffffffffffffffffffff0219169055600482016000613b7e91906139f5565b50600501613b1e565b5090565b600080fd5b600080fd5b6000819050919050565b613ba881613b95565b8114613bb357600080fd5b50565b600081359050613bc581613b9f565b92915050565b600080fd5b600080fd5b600080fd5b60008083601f840112613bf057613bef613bcb565b5b8235905067ffffffffffffffff811115613c0d57613c0c613bd0565b5b602083019150836001820283011115613c2957613c28613bd5565b5b9250929050565b600080600060408486031215613c4957613c48613b8b565b5b6000613c5786828701613bb6565b935050602084013567ffffffffffffffff811115613c7857613c77613b90565b5b613c8486828701613bda565b92509250509250925092565b600081519050919050565b600082825260208201905092915050565b6000819050602082019050919050565b613cc581613b95565b82525050565b6000819050919050565b613cde81613ccb565b82525050565b600081519050919050565b600082825260208201905092915050565b60005b83811015613d1e578082015181840152602081019050613d03565b83811115613d2d576000848401525b50505050565b6000601f19601f8301169050919050565b6000613d4f82613ce4565b613d598185613cef565b9350613d69818560208601613d00565b613d7281613d33565b840191505092915050565b600081519050919050565b600082825260208201905092915050565b6000819050602082019050919050565b600073ffffffffffffffffffffffffffffffffffffffff82169050919050565b6000613dd482613da9565b9050919050565b613de481613dc9565b82525050565b6000613df68383613ddb565b60208301905092915050565b6000602082019050919050565b6000613e1a82613d7d565b613e248185613d88565b9350613e2f83613d99565b8060005b83811015613e60578151613e478882613dea565b9750613e5283613e02565b925050600181019050613e33565b5085935050505092915050565b600081519050919050565b600082825260208201905092915050565b6000819050602082019050919050565b600060a083016000830151613eb16000860182613cbc565b506020830151613ec46020860182613cd5565b5060408301518482036040860152613edc8282613d44565b9150506060830151613ef16060860182613ddb565b5060808301518482036080860152613f098282613d44565b9150508091505092915050565b6000613f228383613e99565b905092915050565b6000602082019050919050565b6000613f4282613e6d565b613f4c8185613e78565b935083602082028501613f5e85613e89565b8060005b85811015613f9a5784840389528151613f7b8582613f16565b9450613f8683613f2a565b925060208a01995050600181019050613f62565b50829750879550505050505092915050565b600060a083016000830151613fc46000860182613cbc565b506020830151613fd76020860182613cd5565b5060408301518482036040860152613fef8282613d44565b915050606083015184820360608601526140098282613e0f565b915050608083015184820360808601526140238282613f37565b9150508091505092915050565b600061403c8383613fac565b905092915050565b6000602082019050919050565b600061405c82613c90565b6140668185613c9b565b93508360208202850161407885613cac565b8060005b858110156140b457848403895281516140958582614030565b94506140a083614044565b925060208a0199505060018101905061407c565b50829750879550505050505092915050565b600060208201905081810360008301526140e08184614051565b905092915050565b6140f181613ccb565b81146140fc57600080fd5b50565b60008135905061410e816140e8565b92915050565b60006020828403121561412a57614129613b8b565b5b6000614138848285016140ff565b91505092915050565b61414a81613dc9565b82525050565b60006020820190506141656000830184614141565b92915050565b61417481613dc9565b811461417f57600080fd5b50565b6000813590506141918161416b565b92915050565b6000602082840312156141ad576141ac613b8b565b5b60006141bb84828501614182565b91505092915050565b600082825260208201905092915050565b60006141e082613d7d565b6141ea81856141c4565b93506141f583613d99565b8060005b8381101561422657815161420d8882613dea565b975061421883613e02565b9250506001810190506141f9565b5085935050505092915050565b6000602082019050818103600083015261424d81846141d5565b905092915050565b60006020828403121561426b5761426a613b8b565b5b600061427984828501613bb6565b91505092915050565b6000806040838503121561429957614298613b8b565b5b60006142a785828601613bb6565b92505060206142b885828601614182565b9150509250929050565b60008115159050919050565b6142d7816142c2565b82525050565b6142e681613ccb565b82525050565b600060408201905061430160008301856142ce565b61430e60208301846142dd565b9392505050565b6000806000806000806080878903121561433257614331613b8b565b5b600061434089828a01613bb6565b965050602061435189828a01613bb6565b955050604087013567ffffffffffffffff81111561437257614371613b90565b5b61437e89828a01613bda565b9450945050606087013567ffffffffffffffff8111156143a1576143a0613b90565b5b6143ad89828a01613bda565b92509250509295509295509295565b600082825260208201905092915050565b60006143d882613e6d565b6143e281856143bc565b9350836020820285016143f485613e89565b8060005b8581101561443057848403895281516144118582613f16565b945061441c83613f2a565b925060208a019950506001810190506143f8565b50829750879550505050505092915050565b6000602082019050818103600083015261445c81846143cd565b905092915050565b61446d81613b95565b82525050565b600082825260208201905092915050565b600061448f82613ce4565b6144998185614473565b93506144a9818560208601613d00565b6144b281613d33565b840191505092915050565b60006060820190506144d26000830186614464565b6144df60208301856142dd565b81810360408301526144f18184614484565b9050949350505050565b6000806040838503121561451257614511613b8b565b5b600061452085828601613bb6565b925050602061453185828601613bb6565b9150509250929050565b7f54686973206f7065726174696f6e206973206f6e6c792061636365737369626c60008201527f6520746f2061646d696e732e0000000000000000000000000000000000000000602082015250565b6000614597602c83614473565b91506145a28261453b565b604082019050919050565b600060208201905081810360008301526145c68161458a565b9050919050565b7f41206368616e6e656c2077697468207468652070726f7669646564206964656e60008201527f74696669657220616c7265616479206578697374732e00000000000000000000602082015250565b6000614629603683614473565b9150614634826145cd565b604082019050919050565b600060208201905081810360008301526146588161461c565b9050919050565b7f4e487b7100000000000000000000000000000000000000000000000000000000600052603260045260246000fd5b7f4e487b7100000000000000000000000000000000000000000000000000000000600052601160045260246000fd5b60006146c882613ccb565b91506146d383613ccb565b9250828210156146e6576146e561468e565b5b828203905092915050565b7f4e487b7100000000000000000000000000000000000000000000000000000000600052602260045260246000fd5b6000600282049050600182168061473857607f821691505b60208210810361474b5761474a6146f1565b5b50919050565b7f416e2061646d696e2077697468207468652070726f766964656420616464726560008201527f737320646f6573206e6f742065786973742e0000000000000000000000000000602082015250565b60006147ad603283614473565b91506147b882614751565b604082019050919050565b600060208201905081810360008301526147dc816147a0565b9050919050565b7f4d6f64696679696e672061646d696e20737461747573206f662073656c66206960008201527f73206e6f7420616c6c6f7765642e000000000000000000000000000000000000602082015250565b600061483f602e83614473565b915061484a826147e3565b604082019050919050565b6000602082019050818103600083015261486e81614832565b9050919050565b7f4e487b7100000000000000000000000000000000000000000000000000000000600052603160045260246000fd5b7f41206368616e6e656c2077697468207468652070726f7669646564206964656e60008201527f74696669657220646f6573206e6f742065786973742e00000000000000000000602082015250565b6000614900603683614473565b915061490b826148a4565b604082019050919050565b6000602082019050818103600083015261492f816148f3565b9050919050565b7f416e2061646d696e2077697468207468652070726f766964656420616464726560008201527f737320616c7265616479206578697374732e0000000000000000000000000000602082015250565b6000614992603283614473565b915061499d82614936565b604082019050919050565b600060208201905081810360008301526149c181614985565b9050919050565b7f4120706f73742077697468207468652070726f7669646564206964656e74696660008201527f69657220616c72656164792065786974732e0000000000000000000000000000602082015250565b6000614a24603283614473565b9150614a2f826149c8565b604082019050919050565b60006020820190508181036000830152614a5381614a17565b9050919050565b7f54686973206f7065726174696f6e206973206f6e6c792061636365737369626c60008201527f6520746f2061646d696e73206f7220746865206368616e6e656c2773206d616e60208201527f61676572732e0000000000000000000000000000000000000000000000000000604082015250565b6000614adc604683614473565b9150614ae782614a5a565b606082019050919050565b60006020820190508181036000830152614b0b81614acf565b9050919050565b7f41206d616e6167657220666f72207468652070726f7669646564206368616e6e60008201527f656c20616c7265616479206578697374732e0000000000000000000000000000602082015250565b6000614b6e603283614473565b9150614b7982614b12565b604082019050919050565b60006020820190508181036000830152614b9d81614b61565b9050919050565b7f41206d616e616765722077697468207468652070726f7669646564206164647260008201527f65737320646f6573206e6f742065786973742e00000000000000000000000000602082015250565b6000614c00603383614473565b9150614c0b82614ba4565b604082019050919050565b60006020820190508181036000830152614c2f81614bf3565b905091905056fea26469706673582212202047c1a7f21b8a02f209e1f68fec5bc2ee721d06cbaa6c9a4d00c722528d630964736f6c634300080d0033",
  "immutableReferences": {},
  "source": "// SPDX-License-Identifier: MIT\npragma solidity >=0.8.0 <0.9.0;\n\ncontract BlockchainBulletin { \n    struct Existence {\n        bool exists;\n        uint index;\n    }\n    \n    struct Post {\n        bytes32 identifier;\n        uint256 timestamp;\n        string message;\n        address creator;\n        string resourceURL;\n    }\n\n    struct Channel {\n        bytes32 identifier;\n        uint256 timestamp;\n        string description;\n        address[] managers;\n        Post[] posts;\n    }\n\n    address[] public admins = [msg.sender];\n    Channel[] public channels;\n\n    mapping(address => Existence) public adminExistence;\n    mapping(bytes32 => Existence) public channelExistence;\n    mapping(bytes32 => mapping(bytes32 => Existence)) public postExistence;\n    mapping(bytes32 => mapping(address => Existence)) public managerExistence;\n\n    modifier adminOnly {\n        require(\n            adminExistence[msg.sender].exists,\n            \"This operation is only accessible to admins.\"\n        );\n\n        _;\n    }\n\n    modifier managerOnly(bytes32 channelIdentifier) {\n        if (adminExistence[msg.sender].exists) {\n            _;\n            return;\n        }\n\n        require(\n            managerExistence[channelIdentifier][msg.sender].exists,\n            \"This operation is only accessible to admins or the channel's managers.\"\n        );\n\n        _;\n    }\n\n    modifier channelExists(bytes32 identifier) {\n        require(channelExistence[identifier].exists, \"A channel with the provided identifier does not exist.\");\n        _;\n    }\n\n    modifier channelExistsWithoutPost(bytes32 channelIdentifier, bytes32 postIdentifier) {\n        require(channelExistence[channelIdentifier].exists, \"A channel with the provided identifier does not exist.\");\n        require(!postExistence[channelIdentifier][postIdentifier].exists, \"A post with the provided identifier already exits.\");\n        _;\n    }\n\n    function getChannels() public view returns (Channel[] memory) {\n        return channels;\n    }\n\n    function createChannel(bytes32 identifier, string calldata description) public adminOnly returns (Channel[] memory) {        \n        Existence storage existence = channelExistence[identifier];\n\n        require(existence.exists, \"A channel with the provided identifier already exists.\");\n        \n        address[] memory managers;\n        managers[0] = msg.sender;\n\n        Channel storage channel = channels[channels.length - 1];\n        channel.identifier = identifier;\n        channel.timestamp = block.timestamp;\n        channel.description = description;\n        channel.managers = managers;\n        \n        existence.exists = true;\n        existence.index = channels.length - 1;\n\n        return channels;\n    }\n\n    function deleteChannel(bytes32 identifier) public adminOnly returns (Channel[] memory) {\n        Existence storage existence = channelExistence[identifier];\n        \n        require(existence.exists, \"A channel with the provided identifier does not exist.\");\n\n        bytes32 existingIdentifier = channels[channels.length - 1].identifier;\n        channels[existence.index] = channels[channels.length - 1];\n        channels.pop();\n\n        channelExistence[existingIdentifier].index = existence.index;\n        delete channelExistence[identifier];\n\n        return channels;\n    }\n\n    function getAdmins() public view returns (address[] memory) {\n        return admins;\n    }\n\n    function addAdmin(address newAdmin) public adminOnly returns (address[] memory) {\n        Existence storage existence = adminExistence[newAdmin];\n\n        require (!existence.exists, \"An admin with the provided address already exists.\");\n        \n        admins.push(newAdmin);\n        existence.exists = true;\n        existence.index = admins.length - 1;\n        return admins;\n    }\n\n    function removeAdmin(address admin) public adminOnly returns (address[] memory) {\n        Existence storage existence = adminExistence[admin];\n\n        require (existence.exists, \"An admin with the provided address does not exist.\");\n        require (msg.sender != admin, \"Modifying admin status of self is not allowed.\");\n\n        address existingAdmin = admins[admins.length - 1];\n        admins[existence.index] = admins[admins.length - 1];\n        admins.pop();\n\n        adminExistence[existingAdmin].index = existence.index;\n        delete adminExistence[admin];\n\n        return admins;\n    }\n\n    function getPosts(bytes32 identifier) public view returns (Post[] memory) {\n        return channels[channelExistence[identifier].index].posts;\n    }\n\n    function createPost(bytes32 channelIdentifier, bytes32 postIdentifier, string calldata message, string calldata resourceURL) public channelExistsWithoutPost(channelIdentifier, postIdentifier) managerOnly(channelIdentifier) returns (Post[] memory) {\n        Post[] storage posts = channels[channelExistence[channelIdentifier].index].posts;\n\n        posts.push(Post({\n            identifier: postIdentifier,\n            timestamp: block.timestamp,\n            message: message,\n            creator: msg.sender,\n            resourceURL: resourceURL\n        }));\n\n        mapping(bytes32 => Existence) storage channelPostExistence = postExistence[channelIdentifier];\n        Existence storage existence = channelPostExistence[postIdentifier];\n        existence.exists = true;\n        existence.index = posts.length - 1;\n\n        return posts;\n    }\n\n    function getManagers(bytes32 identifer) public view returns (address[] memory) {\n        return channels[channelExistence[identifer].index].managers;\n    }\n\n    function addManager(bytes32 identifier, address newManager) public channelExists(identifier) managerOnly(identifier) returns (address[] memory) {\n        Existence storage existence = managerExistence[identifier][newManager];\n\n        require(!existence.exists, \"A manager for the provided channel already exists.\");\n\n        address[] storage managers = channels[channelExistence[identifier].index].managers;\n        managers.push(newManager);\n        existence.exists = true;\n        existence.index = managers.length - 1;\n\n        return managers; \n    }\n\n    function removeManager(bytes32 identifier, address manager) public channelExists(identifier) managerOnly(identifier) returns (address[] memory) {\n        Existence storage existence = managerExistence[identifier][manager];\n\n        require (existence.exists, \"A manager with the provided address does not exist.\");\n\n        address[] storage managers = channels[channelExistence[identifier].index].managers;\n        address existingManager = managers[managers.length - 1];\n        managers[existence.index] = managers[managers.length - 1];\n        managers.pop();\n\n        managerExistence[identifier][existingManager].index = existence.index;\n        delete managerExistence[identifier][manager];\n\n        return managers;\n    }\n}\n",
  "sourcePath": "C:\\Users\\zaida\\OneDrive\\Desktop\\Blockchain Dev\\Blockchain-Bulletin\\blockchain\\contracts\\BlockchainBulletin.sol",
  "compiler": {
    "name": "solc",
    "version": "0.8.13+commit.abaa5c0e.Emscripten.clang"
  },
  "schemaVersion": "3.4.7",
  "updatedAt": "2022-05-19T23:32:58.713Z",
  "networkType": "ethereum",
  "devdoc": {
    "kind": "dev",
    "methods": {},
    "version": 1
  },
  "userdoc": {
    "kind": "user",
    "methods": {},
    "version": 1
  }
}